{"contracts/AccessRegistry.sol":{"AccessRegistry":{"abi":[{"inputs":[],"stateMutability":"nonpayable","type":"constructor"},{"anonymous":false,"inputs":[{"indexed":true,"internalType":"address","name":"consumer","type":"address"}],"name":"ConsumerRevoked","type":"event"},{"anonymous":false,"inputs":[{"indexed":true,"internalType":"address","name":"consumer","type":"address"},{"indexed":false,"internalType":"string","name":"label","type":"string"}],"name":"ConsumerWhitelisted","type":"event"},{"anonymous":false,"inputs":[{"indexed":true,"internalType":"address","name":"oldOwner","type":"address"},{"indexed":true,"internalType":"address","name":"newOwner","type":"address"}],"name":"OwnershipTransferred","type":"event"},{"inputs":[],"name":"allConsumers","outputs":[{"internalType":"address[]","name":"","type":"address[]"}],"stateMutability":"view","type":"function"},{"inputs":[{"internalType":"address","name":"","type":"address"}],"name":"consumerLabels","outputs":[{"internalType":"string","name":"","type":"string"}],"stateMutability":"view","type":"function"},{"inputs":[{"internalType":"address","name":"consumer","type":"address"}],"name":"isWhitelisted","outputs":[{"internalType":"bool","name":"","type":"bool"}],"stateMutability":"view","type":"function"},{"inputs":[],"name":"owner","outputs":[{"internalType":"address","name":"","type":"address"}],"stateMutability":"view","type":"function"},{"inputs":[{"internalType":"address","name":"consumer","type":"address"}],"name":"revoke","outputs":[],"stateMutability":"nonpayable","type":"function"},{"inputs":[{"internalType":"address","name":"newOwner","type":"address"}],"name":"transferOwnership","outputs":[],"stateMutability":"nonpayable","type":"function"},{"inputs":[{"internalType":"address","name":"consumer","type":"address"},{"internalType":"string","name":"label","type":"string"}],"name":"whitelist","outputs":[],"stateMutability":"nonpayable","type":"function"}],"evm":{"bytecode":{"linkReferences":{},"object":"6080806040523461002857600080546001600160a01b0319163317905561078c908161002e8239f35b600080fdfe604060808152600436101561001357600080fd5b600090813560e01c9081632beeaca4146103975781633af32abf14610359578163674c5ce81461024457816374a8f103146101d55781638da5cb5b146101a95781639e12cf64146100e5575063f2fde38b1461006e57600080fd5b346100e25760203660031901126100e257610087610631565b81546001600160a01b03808216926100a03385146106be565b1680926100ae82151561070a565b7f8be0079c531659141344cd1fd0a4f28419497f9722a3daafe3b4186f6b6457e08580a36001600160a01b03191617815580f35b80fd5b82346100e257806003193601126100e2579080519182906003549182855260208095018093600384527fc2575a0e9e593c00f959f8c92f12db2869c3395a3b0502d05e2516446f71f85b90845b81811061018c5750505081610148910382610686565b83519485948186019282875251809352850193925b82811061016c57505050500390f35b83516001600160a01b03168552869550938101939281019260010161015d565b82546001600160a01b031684529288019260019283019201610132565b9050346101d157816003193601126101d157905490516001600160a01b039091168152602090f35b5080fd5b9050346101d15760203660031901126101d1576101f0610631565b82546001600160a01b03919061020990831633146106be565b168083526001602052908220805460ff191690557fba6e324dd75969176df09e0229c0f140ea0fd2261d24992ac14978fae998afe78280a280f35b9050346101d157602091826003193601126100e2576001600160a01b03610269610631565b16815260028352818120908383518093839080546102868161064c565b8085529160019180831690811561033657506001146102f9575b5050506102b39250959392950382610686565b82519382859384528251928382860152825b8481106102e357505050828201840152601f01601f19168101030190f35b81810183015188820188015287955082016102c5565b86528486209492508591905b81831061031e5750889450508201016102b338806102a0565b85548884018501529485019487945091830191610305565b925050506102b394925060ff191682840152151560051b820101869238806102a0565b9050346101d15760203660031901126101d15760209160ff9082906001600160a01b03610384610631565b1681526001855220541690519015158152f35b82346100e257816003193601126100e2576103b0610631565b9160249283359167ffffffffffffffff9182841161062d573660238501121561062d57836004013592831161062d573686848601011161062d5784546001600160a01b03919061040390831633146106be565b169261041084151561070a565b83855260019560209187835260ff8488205416156105ae575b8587528783528387208860ff198254161790556002835283872061044d815461064c565b601f8111610568575b5087601f87116001146104de5791839187808b9c819782977f26877316c574f0297bf0ec32385719ea387c8d9ef0dc60a811e1288302714c2f9d9e946104d1575b50501b906000198660031b1c19161790555b855196858896875286015201848401378181018301879052601f01601f19168101030190a280f35b860101359250858f610497565b98601f198716828a52858a20908a5b818110610551575091889593917f26877316c574f0297bf0ec32385719ea387c8d9ef0dc60a811e1288302714c2f9a9b9c8780979510610535575b505084811b0190556104a9565b8401850135600019600388901b60f8161c191690558c80610528565b858d0187013583559b87019b9183019187016104ed565b818952848920601f880160051c8101918689106105a4575b601f0160051c01908a905b828110610599575050610456565b8a8155018a9061058b565b9091508190610580565b6003546801000000000000000081101561061a5788810180600355811015610607577fc2575a0e9e593c00f959f8c92f12db2869c3395a3b0502d05e2516446f71f85b0180546001600160a01b03191687179055610429565b634e487b7160e01b885260326004528288fd5b634e487b7160e01b885260416004528288fd5b8480fd5b600435906001600160a01b038216820361064757565b600080fd5b90600182811c9216801561067c575b602083101461066657565b634e487b7160e01b600052602260045260246000fd5b91607f169161065b565b90601f8019910116810190811067ffffffffffffffff8211176106a857604052565b634e487b7160e01b600052604160045260246000fd5b156106c557565b60405162461bcd60e51b815260206004820152601960248201527f41636365737352656769737472793a206e6f74206f776e6572000000000000006044820152606490fd5b1561071157565b60405162461bcd60e51b815260206004820152601c60248201527f41636365737352656769737472793a207a65726f2061646472657373000000006044820152606490fdfea2646970667358221220411c2a7d6345325d4652bf1dc8179158c7a7d7df404600dcb6a77e21accbbcde64736f6c63430008180033","opcodes":"PUSH1 0x80 DUP1 PUSH1 0x40 MSTORE CALLVALUE PUSH2 0x28 JUMPI PUSH1 0x0 DUP1 SLOAD PUSH1 0x1 PUSH1 0x1 PUSH1 0xA0 SHL SUB NOT AND CALLER OR SWAP1 SSTORE PUSH2 0x78C SWAP1 DUP2 PUSH2 0x2E DUP3 CODECOPY RETURN JUMPDEST PUSH1 0x0 DUP1 REVERT INVALID PUSH1 0x40 PUSH1 0x80 DUP2 MSTORE PUSH1 0x4 CALLDATASIZE LT ISZERO PUSH2 0x13 JUMPI PUSH1 0x0 DUP1 REVERT JUMPDEST PUSH1 0x0 SWAP1 DUP2 CALLDATALOAD PUSH1 0xE0 SHR SWAP1 DUP2 PUSH4 0x2BEEACA4 EQ PUSH2 0x397 JUMPI DUP2 PUSH4 0x3AF32ABF EQ PUSH2 0x359 JUMPI DUP2 PUSH4 0x674C5CE8 EQ PUSH2 0x244 JUMPI DUP2 PUSH4 0x74A8F103 EQ PUSH2 0x1D5 JUMPI DUP2 PUSH4 0x8DA5CB5B EQ PUSH2 0x1A9 JUMPI DUP2 PUSH4 0x9E12CF64 EQ PUSH2 0xE5 JUMPI POP PUSH4 0xF2FDE38B EQ PUSH2 0x6E JUMPI PUSH1 0x0 DUP1 REVERT JUMPDEST CALLVALUE PUSH2 0xE2 JUMPI PUSH1 0x20 CALLDATASIZE PUSH1 0x3 NOT ADD SLT PUSH2 0xE2 JUMPI PUSH2 0x87 PUSH2 0x631 JUMP JUMPDEST DUP2 SLOAD PUSH1 0x1 PUSH1 0x1 PUSH1 0xA0 SHL SUB DUP1 DUP3 AND SWAP3 PUSH2 0xA0 CALLER DUP6 EQ PUSH2 0x6BE JUMP JUMPDEST AND DUP1 SWAP3 PUSH2 0xAE DUP3 ISZERO ISZERO PUSH2 0x70A JUMP JUMPDEST PUSH32 0x8BE0079C531659141344CD1FD0A4F28419497F9722A3DAAFE3B4186F6B6457E0 DUP6 DUP1 LOG3 PUSH1 0x1 PUSH1 0x1 PUSH1 0xA0 SHL SUB NOT AND OR DUP2 SSTORE DUP1 RETURN JUMPDEST DUP1 REVERT JUMPDEST DUP3 CALLVALUE PUSH2 0xE2 JUMPI DUP1 PUSH1 0x3 NOT CALLDATASIZE ADD SLT PUSH2 0xE2 JUMPI SWAP1 DUP1 MLOAD SWAP2 DUP3 SWAP1 PUSH1 0x3 SLOAD SWAP2 DUP3 DUP6 MSTORE PUSH1 0x20 DUP1 SWAP6 ADD DUP1 SWAP4 PUSH1 0x3 DUP5 MSTORE PUSH32 0xC2575A0E9E593C00F959F8C92F12DB2869C3395A3B0502D05E2516446F71F85B SWAP1 DUP5 JUMPDEST DUP2 DUP2 LT PUSH2 0x18C JUMPI POP POP POP DUP2 PUSH2 0x148 SWAP2 SUB DUP3 PUSH2 0x686 JUMP JUMPDEST DUP4 MLOAD SWAP5 DUP6 SWAP5 DUP2 DUP7 ADD SWAP3 DUP3 DUP8 MSTORE MLOAD DUP1 SWAP4 MSTORE DUP6 ADD SWAP4 SWAP3 JUMPDEST DUP3 DUP2 LT PUSH2 0x16C JUMPI POP POP POP POP SUB SWAP1 RETURN JUMPDEST DUP4 MLOAD PUSH1 0x1 PUSH1 0x1 PUSH1 0xA0 SHL SUB AND DUP6 MSTORE DUP7 SWAP6 POP SWAP4 DUP2 ADD SWAP4 SWAP3 DUP2 ADD SWAP3 PUSH1 0x1 ADD PUSH2 0x15D JUMP JUMPDEST DUP3 SLOAD PUSH1 0x1 PUSH1 0x1 PUSH1 0xA0 SHL SUB AND DUP5 MSTORE SWAP3 DUP9 ADD SWAP3 PUSH1 0x1 SWAP3 DUP4 ADD SWAP3 ADD PUSH2 0x132 JUMP JUMPDEST SWAP1 POP CALLVALUE PUSH2 0x1D1 JUMPI DUP2 PUSH1 0x3 NOT CALLDATASIZE ADD SLT PUSH2 0x1D1 JUMPI SWAP1 SLOAD SWAP1 MLOAD PUSH1 0x1 PUSH1 0x1 PUSH1 0xA0 SHL SUB SWAP1 SWAP2 AND DUP2 MSTORE PUSH1 0x20 SWAP1 RETURN JUMPDEST POP DUP1 REVERT JUMPDEST SWAP1 POP CALLVALUE PUSH2 0x1D1 JUMPI PUSH1 0x20 CALLDATASIZE PUSH1 0x3 NOT ADD SLT PUSH2 0x1D1 JUMPI PUSH2 0x1F0 PUSH2 0x631 JUMP JUMPDEST DUP3 SLOAD PUSH1 0x1 PUSH1 0x1 PUSH1 0xA0 SHL SUB SWAP2 SWAP1 PUSH2 0x209 SWAP1 DUP4 AND CALLER EQ PUSH2 0x6BE JUMP JUMPDEST AND DUP1 DUP4 MSTORE PUSH1 0x1 PUSH1 0x20 MSTORE SWAP1 DUP3 KECCAK256 DUP1 SLOAD PUSH1 0xFF NOT AND SWAP1 SSTORE PUSH32 0xBA6E324DD75969176DF09E0229C0F140EA0FD2261D24992AC14978FAE998AFE7 DUP3 DUP1 LOG2 DUP1 RETURN JUMPDEST SWAP1 POP CALLVALUE PUSH2 0x1D1 JUMPI PUSH1 0x20 SWAP2 DUP3 PUSH1 0x3 NOT CALLDATASIZE ADD SLT PUSH2 0xE2 JUMPI PUSH1 0x1 PUSH1 0x1 PUSH1 0xA0 SHL SUB PUSH2 0x269 PUSH2 0x631 JUMP JUMPDEST AND DUP2 MSTORE PUSH1 0x2 DUP4 MSTORE DUP2 DUP2 KECCAK256 SWAP1 DUP4 DUP4 MLOAD DUP1 SWAP4 DUP4 SWAP1 DUP1 SLOAD PUSH2 0x286 DUP2 PUSH2 0x64C JUMP JUMPDEST DUP1 DUP6 MSTORE SWAP2 PUSH1 0x1 SWAP2 DUP1 DUP4 AND SWAP1 DUP2 ISZERO PUSH2 0x336 JUMPI POP PUSH1 0x1 EQ PUSH2 0x2F9 JUMPI JUMPDEST POP POP POP PUSH2 0x2B3 SWAP3 POP SWAP6 SWAP4 SWAP3 SWAP6 SUB DUP3 PUSH2 0x686 JUMP JUMPDEST DUP3 MLOAD SWAP4 DUP3 DUP6 SWAP4 DUP5 MSTORE DUP3 MLOAD SWAP3 DUP4 DUP3 DUP7 ADD MSTORE DUP3 JUMPDEST DUP5 DUP2 LT PUSH2 0x2E3 JUMPI POP POP POP DUP3 DUP3 ADD DUP5 ADD MSTORE PUSH1 0x1F ADD PUSH1 0x1F NOT AND DUP2 ADD SUB ADD SWAP1 RETURN JUMPDEST DUP2 DUP2 ADD DUP4 ADD MLOAD DUP9 DUP3 ADD DUP9 ADD MSTORE DUP8 SWAP6 POP DUP3 ADD PUSH2 0x2C5 JUMP JUMPDEST DUP7 MSTORE DUP5 DUP7 KECCAK256 SWAP5 SWAP3 POP DUP6 SWAP2 SWAP1 JUMPDEST DUP2 DUP4 LT PUSH2 0x31E JUMPI POP DUP9 SWAP5 POP POP DUP3 ADD ADD PUSH2 0x2B3 CODESIZE DUP1 PUSH2 0x2A0 JUMP JUMPDEST DUP6 SLOAD DUP9 DUP5 ADD DUP6 ADD MSTORE SWAP5 DUP6 ADD SWAP5 DUP8 SWAP5 POP SWAP2 DUP4 ADD SWAP2 PUSH2 0x305 JUMP JUMPDEST SWAP3 POP POP POP PUSH2 0x2B3 SWAP5 SWAP3 POP PUSH1 0xFF NOT AND DUP3 DUP5 ADD MSTORE ISZERO ISZERO PUSH1 0x5 SHL DUP3 ADD ADD DUP7 SWAP3 CODESIZE DUP1 PUSH2 0x2A0 JUMP JUMPDEST SWAP1 POP CALLVALUE PUSH2 0x1D1 JUMPI PUSH1 0x20 CALLDATASIZE PUSH1 0x3 NOT ADD SLT PUSH2 0x1D1 JUMPI PUSH1 0x20 SWAP2 PUSH1 0xFF SWAP1 DUP3 SWAP1 PUSH1 0x1 PUSH1 0x1 PUSH1 0xA0 SHL SUB PUSH2 0x384 PUSH2 0x631 JUMP JUMPDEST AND DUP2 MSTORE PUSH1 0x1 DUP6 MSTORE KECCAK256 SLOAD AND SWAP1 MLOAD SWAP1 ISZERO ISZERO DUP2 MSTORE RETURN JUMPDEST DUP3 CALLVALUE PUSH2 0xE2 JUMPI DUP2 PUSH1 0x3 NOT CALLDATASIZE ADD SLT PUSH2 0xE2 JUMPI PUSH2 0x3B0 PUSH2 0x631 JUMP JUMPDEST SWAP2 PUSH1 0x24 SWAP3 DUP4 CALLDATALOAD SWAP2 PUSH8 0xFFFFFFFFFFFFFFFF SWAP2 DUP3 DUP5 GT PUSH2 0x62D JUMPI CALLDATASIZE PUSH1 0x23 DUP6 ADD SLT ISZERO PUSH2 0x62D JUMPI DUP4 PUSH1 0x4 ADD CALLDATALOAD SWAP3 DUP4 GT PUSH2 0x62D JUMPI CALLDATASIZE DUP7 DUP5 DUP7 ADD ADD GT PUSH2 0x62D JUMPI DUP5 SLOAD PUSH1 0x1 PUSH1 0x1 PUSH1 0xA0 SHL SUB SWAP2 SWAP1 PUSH2 0x403 SWAP1 DUP4 AND CALLER EQ PUSH2 0x6BE JUMP JUMPDEST AND SWAP3 PUSH2 0x410 DUP5 ISZERO ISZERO PUSH2 0x70A JUMP JUMPDEST DUP4 DUP6 MSTORE PUSH1 0x1 SWAP6 PUSH1 0x20 SWAP2 DUP8 DUP4 MSTORE PUSH1 0xFF DUP5 DUP9 KECCAK256 SLOAD AND ISZERO PUSH2 0x5AE JUMPI JUMPDEST DUP6 DUP8 MSTORE DUP8 DUP4 MSTORE DUP4 DUP8 KECCAK256 DUP9 PUSH1 0xFF NOT DUP3 SLOAD AND OR SWAP1 SSTORE PUSH1 0x2 DUP4 MSTORE DUP4 DUP8 KECCAK256 PUSH2 0x44D DUP2 SLOAD PUSH2 0x64C JUMP JUMPDEST PUSH1 0x1F DUP2 GT PUSH2 0x568 JUMPI JUMPDEST POP DUP8 PUSH1 0x1F DUP8 GT PUSH1 0x1 EQ PUSH2 0x4DE JUMPI SWAP2 DUP4 SWAP2 DUP8 DUP1 DUP12 SWAP13 DUP2 SWAP8 DUP3 SWAP8 PUSH32 0x26877316C574F0297BF0EC32385719EA387C8D9EF0DC60A811E1288302714C2F SWAP14 SWAP15 SWAP5 PUSH2 0x4D1 JUMPI JUMPDEST POP POP SHL SWAP1 PUSH1 0x0 NOT DUP7 PUSH1 0x3 SHL SHR NOT AND OR SWAP1 SSTORE JUMPDEST DUP6 MLOAD SWAP7 DUP6 DUP9 SWAP7 DUP8 MSTORE DUP7 ADD MSTORE ADD DUP5 DUP5 ADD CALLDATACOPY DUP2 DUP2 ADD DUP4 ADD DUP8 SWAP1 MSTORE PUSH1 0x1F ADD PUSH1 0x1F NOT AND DUP2 ADD SUB ADD SWAP1 LOG2 DUP1 RETURN JUMPDEST DUP7 ADD ADD CALLDATALOAD SWAP3 POP DUP6 DUP16 PUSH2 0x497 JUMP JUMPDEST SWAP9 PUSH1 0x1F NOT DUP8 AND DUP3 DUP11 MSTORE DUP6 DUP11 KECCAK256 SWAP1 DUP11 JUMPDEST DUP2 DUP2 LT PUSH2 0x551 JUMPI POP SWAP2 DUP9 SWAP6 SWAP4 SWAP2 PUSH32 0x26877316C574F0297BF0EC32385719EA387C8D9EF0DC60A811E1288302714C2F SWAP11 SWAP12 SWAP13 DUP8 DUP1 SWAP8 SWAP6 LT PUSH2 0x535 JUMPI JUMPDEST POP POP DUP5 DUP2 SHL ADD SWAP1 SSTORE PUSH2 0x4A9 JUMP JUMPDEST DUP5 ADD DUP6 ADD CALLDATALOAD PUSH1 0x0 NOT PUSH1 0x3 DUP9 SWAP1 SHL PUSH1 0xF8 AND SHR NOT AND SWAP1 SSTORE DUP13 DUP1 PUSH2 0x528 JUMP JUMPDEST DUP6 DUP14 ADD DUP8 ADD CALLDATALOAD DUP4 SSTORE SWAP12 DUP8 ADD SWAP12 SWAP2 DUP4 ADD SWAP2 DUP8 ADD PUSH2 0x4ED JUMP JUMPDEST DUP2 DUP10 MSTORE DUP5 DUP10 KECCAK256 PUSH1 0x1F DUP9 ADD PUSH1 0x5 SHR DUP2 ADD SWAP2 DUP7 DUP10 LT PUSH2 0x5A4 JUMPI JUMPDEST PUSH1 0x1F ADD PUSH1 0x5 SHR ADD SWAP1 DUP11 SWAP1 JUMPDEST DUP3 DUP2 LT PUSH2 0x599 JUMPI POP POP PUSH2 0x456 JUMP JUMPDEST DUP11 DUP2 SSTORE ADD DUP11 SWAP1 PUSH2 0x58B JUMP JUMPDEST SWAP1 SWAP2 POP DUP2 SWAP1 PUSH2 0x580 JUMP JUMPDEST PUSH1 0x3 SLOAD PUSH9 0x10000000000000000 DUP2 LT ISZERO PUSH2 0x61A JUMPI DUP9 DUP2 ADD DUP1 PUSH1 0x3 SSTORE DUP2 LT ISZERO PUSH2 0x607 JUMPI PUSH32 0xC2575A0E9E593C00F959F8C92F12DB2869C3395A3B0502D05E2516446F71F85B ADD DUP1 SLOAD PUSH1 0x1 PUSH1 0x1 PUSH1 0xA0 SHL SUB NOT AND DUP8 OR SWAP1 SSTORE PUSH2 0x429 JUMP JUMPDEST PUSH4 0x4E487B71 PUSH1 0xE0 SHL DUP9 MSTORE PUSH1 0x32 PUSH1 0x4 MSTORE DUP3 DUP9 REVERT JUMPDEST PUSH4 0x4E487B71 PUSH1 0xE0 SHL DUP9 MSTORE PUSH1 0x41 PUSH1 0x4 MSTORE DUP3 DUP9 REVERT JUMPDEST DUP5 DUP1 REVERT JUMPDEST PUSH1 0x4 CALLDATALOAD SWAP1 PUSH1 0x1 PUSH1 0x1 PUSH1 0xA0 SHL SUB DUP3 AND DUP3 SUB PUSH2 0x647 JUMPI JUMP JUMPDEST PUSH1 0x0 DUP1 REVERT JUMPDEST SWAP1 PUSH1 0x1 DUP3 DUP2 SHR SWAP3 AND DUP1 ISZERO PUSH2 0x67C JUMPI JUMPDEST PUSH1 0x20 DUP4 LT EQ PUSH2 0x666 JUMPI JUMP JUMPDEST PUSH4 0x4E487B71 PUSH1 0xE0 SHL PUSH1 0x0 MSTORE PUSH1 0x22 PUSH1 0x4 MSTORE PUSH1 0x24 PUSH1 0x0 REVERT JUMPDEST SWAP2 PUSH1 0x7F AND SWAP2 PUSH2 0x65B JUMP JUMPDEST SWAP1 PUSH1 0x1F DUP1 NOT SWAP2 ADD AND DUP2 ADD SWAP1 DUP2 LT PUSH8 0xFFFFFFFFFFFFFFFF DUP3 GT OR PUSH2 0x6A8 JUMPI PUSH1 0x40 MSTORE JUMP JUMPDEST PUSH4 0x4E487B71 PUSH1 0xE0 SHL PUSH1 0x0 MSTORE PUSH1 0x41 PUSH1 0x4 MSTORE PUSH1 0x24 PUSH1 0x0 REVERT JUMPDEST ISZERO PUSH2 0x6C5 JUMPI JUMP JUMPDEST PUSH1 0x40 MLOAD PUSH3 0x461BCD PUSH1 0xE5 SHL DUP2 MSTORE PUSH1 0x20 PUSH1 0x4 DUP3 ADD MSTORE PUSH1 0x19 PUSH1 0x24 DUP3 ADD MSTORE PUSH32 0x41636365737352656769737472793A206E6F74206F776E657200000000000000 PUSH1 0x44 DUP3 ADD MSTORE PUSH1 0x64 SWAP1 REVERT JUMPDEST ISZERO PUSH2 0x711 JUMPI JUMP JUMPDEST PUSH1 0x40 MLOAD PUSH3 0x461BCD PUSH1 0xE5 SHL DUP2 MSTORE PUSH1 0x20 PUSH1 0x4 DUP3 ADD MSTORE PUSH1 0x1C PUSH1 0x24 DUP3 ADD MSTORE PUSH32 0x41636365737352656769737472793A207A65726F206164647265737300000000 PUSH1 0x44 DUP3 ADD MSTORE PUSH1 0x64 SWAP1 REVERT INVALID LOG2 PUSH5 0x6970667358 0x22 SLT KECCAK256 COINBASE SHR 0x2A PUSH30 0x6345325D4652BF1DC8179158C7A7D7DF404600DCB6A77E21ACCBBCDE6473 PUSH16 0x6C634300081800330000000000000000 "},"methodIdentifiers":{"allConsumers()":"9e12cf64","consumerLabels(address)":"674c5ce8","isWhitelisted(address)":"3af32abf","owner()":"8da5cb5b","revoke(address)":"74a8f103","transferOwnership(address)":"f2fde38b","whitelist(address,string)":"2beeaca4"}}}}}