{"contracts/FHEOracleBridge.sol":{"FHEOracleBridge":{"abi":[{"inputs":[{"internalType":"address","name":"_registry","type":"address"}],"stateMutability":"nonpayable","type":"constructor"},{"anonymous":false,"inputs":[{"indexed":true,"internalType":"uint256","name":"feedId","type":"uint256"},{"indexed":false,"internalType":"string","name":"description","type":"string"}],"name":"FeedCreated","type":"event"},{"anonymous":false,"inputs":[{"indexed":true,"internalType":"uint256","name":"feedId","type":"uint256"},{"indexed":false,"internalType":"uint256","name":"roundId","type":"uint256"},{"indexed":false,"internalType":"uint256","name":"feederCount","type":"uint256"}],"name":"FeedUpdated","type":"event"},{"anonymous":false,"inputs":[{"indexed":true,"internalType":"address","name":"feeder","type":"address"}],"name":"FeederAdded","type":"event"},{"anonymous":false,"inputs":[{"indexed":true,"internalType":"address","name":"feeder","type":"address"}],"name":"FeederRemoved","type":"event"},{"anonymous":false,"inputs":[{"indexed":true,"internalType":"address","name":"feeder","type":"address"},{"indexed":false,"internalType":"uint256","name":"amount","type":"uint256"}],"name":"FeederSlashed","type":"event"},{"anonymous":false,"inputs":[{"indexed":true,"internalType":"uint256","name":"feedId","type":"uint256"},{"indexed":true,"internalType":"address","name":"feeder","type":"address"},{"indexed":false,"internalType":"uint256","name":"roundId","type":"uint256"}],"name":"PriceSubmitted","type":"event"},{"inputs":[],"name":"DEFAULT_TTL","outputs":[{"internalType":"uint256","name":"","type":"uint256"}],"stateMutability":"view","type":"function"},{"inputs":[],"name":"MIN_STAKE","outputs":[{"internalType":"uint256","name":"","type":"uint256"}],"stateMutability":"view","type":"function"},{"inputs":[{"internalType":"address","name":"feeder","type":"address"}],"name":"addFeeder","outputs":[],"stateMutability":"nonpayable","type":"function"},{"inputs":[{"internalType":"string","name":"description","type":"string"},{"internalType":"uint256","name":"ttl","type":"uint256"},{"internalType":"uint8","name":"minFeeders","type":"uint8"}],"name":"createFeed","outputs":[{"internalType":"uint256","name":"feedId","type":"uint256"}],"stateMutability":"nonpayable","type":"function"},{"inputs":[],"name":"feedCount","outputs":[{"internalType":"uint256","name":"","type":"uint256"}],"stateMutability":"view","type":"function"},{"inputs":[{"internalType":"address","name":"","type":"address"}],"name":"feederStake","outputs":[{"internalType":"uint256","name":"","type":"uint256"}],"stateMutability":"view","type":"function"},{"inputs":[{"internalType":"address","name":"","type":"address"}],"name":"feeders","outputs":[{"internalType":"bool","name":"","type":"bool"}],"stateMutability":"view","type":"function"},{"inputs":[{"internalType":"uint256","name":"feedId","type":"uint256"}],"name":"getEncryptedPrice","outputs":[{"internalType":"euint256","name":"","type":"uint256"}],"stateMutability":"view","type":"function"},{"inputs":[{"internalType":"uint256","name":"feedId","type":"uint256"}],"name":"getFeedInfo","outputs":[{"internalType":"string","name":"description","type":"string"},{"internalType":"uint256","name":"lastUpdated","type":"uint256"},{"internalType":"uint256","name":"roundId","type":"uint256"},{"internalType":"uint256","name":"ttl","type":"uint256"},{"internalType":"uint8","name":"minFeeders","type":"uint8"},{"internalType":"bool","name":"active","type":"bool"},{"internalType":"bool","name":"isStale","type":"bool"}],"stateMutability":"view","type":"function"},{"inputs":[],"name":"owner","outputs":[{"internalType":"address","name":"","type":"address"}],"stateMutability":"view","type":"function"},{"inputs":[{"internalType":"uint256","name":"feedId","type":"uint256"}],"name":"pauseFeed","outputs":[],"stateMutability":"nonpayable","type":"function"},{"inputs":[{"internalType":"uint256","name":"feedId","type":"uint256"}],"name":"pendingSubmissions","outputs":[{"internalType":"uint256","name":"","type":"uint256"}],"stateMutability":"view","type":"function"},{"inputs":[],"name":"registry","outputs":[{"internalType":"contract AccessRegistry","name":"","type":"address"}],"stateMutability":"view","type":"function"},{"inputs":[{"internalType":"address","name":"feeder","type":"address"}],"name":"removeFeeder","outputs":[],"stateMutability":"nonpayable","type":"function"},{"inputs":[{"internalType":"uint256","name":"feedId","type":"uint256"}],"name":"resumeFeed","outputs":[],"stateMutability":"nonpayable","type":"function"},{"inputs":[{"internalType":"address","name":"feeder","type":"address"},{"internalType":"uint256","name":"amount","type":"uint256"}],"name":"slash","outputs":[],"stateMutability":"nonpayable","type":"function"},{"inputs":[],"name":"stake","outputs":[],"stateMutability":"payable","type":"function"},{"inputs":[{"internalType":"uint256","name":"feedId","type":"uint256"},{"internalType":"uint256","name":"encPrice","type":"uint256"}],"name":"submitPrice","outputs":[],"stateMutability":"nonpayable","type":"function"},{"inputs":[{"internalType":"address","name":"newOwner","type":"address"}],"name":"transferOwnership","outputs":[],"stateMutability":"nonpayable","type":"function"},{"stateMutability":"payable","type":"receive"}],"evm":{"bytecode":{"linkReferences":{},"object":"60a03461008557601f61154938819003918201601f19168301916001600160401b0383118484101761008a5780849260209460405283398101031261008557516001600160a01b0381169081900361008557600080546001600160a01b031916331790556080526040516114a890816100a182396080518181816107140152610b050152f35b600080fd5b634e487b7160e01b600052604160045260246000fdfe6080604052600436101561001b575b361561001957600080fd5b005b60003560e01c806302fb4d851461104e5780630aa316611461100f578063155fb6ae14610f9b57806316b4ecaf14610f455780632392258814610efd578063364c807314610d775780633a4b66f114610cb15780634388cbd014610ad35780634628986d14610ab55780634edf698a1461077d5780636df66840146107435780637b103999146106fe5780638da5cb5b146106d55780638e1207dc1461066457806391937b5114610620578063b3b548eb146101bc578063cb1c2b5c1461019a578063ef62821a1461017d5763f2fde38b0361000e57346101785760203660031901126101785761010a611163565b600054906001600160a01b03906101243383851614611179565b1690811561013c576001600160a01b03191617600055005b60405162461bcd60e51b81526020600482015260146024820152734f7261636c653a207a65726f206164647265737360601b6044820152606490fd5b600080fd5b34610178576000366003190112610178576020604051610e108152f35b34610178576000366003190112610178576020604051662386f26fc100008152f35b346101785760403660031901126101785760043560243360005260206002815260ff60406000205416156105de573360005260039060038152662386f26fc100006040600020541061059b578315158061058f575b61021a9061123e565b83600052600180825261023a60ff60046040600020015460081c1661128a565b8460005280825260406000209360028501549482860180961161057a5786600052600594600585526040600020876000528552604060002033600052855260ff84604060002001541661052b576040516040810181811067ffffffffffffffff821117610516576040528335815284868201918183528a6000526005885260406000208a60005288526040600020336000528852604060002090518155019051151560ff801983541691161790558760005260048552604060002087600052855260406000208054906801000000000000000082101561051657906103239186820181556112cc565b929080549360031b60018060a01b03948533831b921b1916179055604051888152897f2655941ef0e01e05d55a873609115593db7df65cd101451b9f7e89ede1613ec9883393a38860005260048652604060002088600052865260ff600460406000205492015416111561039357005b8760005260048552604060002087600052855260406000209081549685881460001461045157505087600052600585526040600020876000528552604060002092861561043d5750604095938795937f69748882305e8dcad98eaf84a01a297e5f37d0b390f0992d9d973c3458d7307c989360029360005285600020541660005284528660002054905b8960005280855287600020918255429082015501558351928352820152a2005b634e487b7160e01b60009081526032600452fd5b929093506104638796959998976112fa565b9361047160405195866111c6565b868552601f19610480886112fa565b01368787013760005b8781106104cf575050505050908360027f69748882305e8dcad98eaf84a01a297e5f37d0b390f0992d9d973c3458d7307c96976104c96040979695611343565b9061041d565b8a908a60005285885260406000208a60005288526040600020846104f383886112cc565b905490861b1c16600052885260406000205461050f8289611312565b5201610489565b84634e487b7160e01b60005260416004526000fd5b608485846040519162461bcd60e51b83526004830152808201527f4f7261636c653a20616c7265616479207375626d6974746564207468697320726044820152631bdd5b9960e21b6064820152fd5b50634e487b7160e01b60009081526011600452fd5b50600654841115610211565b606490601a846040519262461bcd60e51b845260048401528201527f4f7261636c653a20696e73756666696369656e74207374616b650000000000006044820152fd5b601d6064926040519262461bcd60e51b845260048401528201527f4f7261636c653a206e6f7420617574686f7269736564206665656465720000006044820152fd5b346101785760203660031901126101785761064660018060a01b03600054163314611179565b60048035600090815260016020526040902001805461ff0019169055005b346101785760203660031901126101785761067d611163565b6000546001600160a01b0391906106979083163314611179565b16806000526002602052604060002060ff1981541690557fb0bc40f69e0e5f4bb32517529a6b4eb76c452372c18fe559934d27a4a8f88dce600080a2005b34610178576000366003190112610178576000546040516001600160a01b039091168152602090f35b34610178576000366003190112610178576040517f00000000000000000000000000000000000000000000000000000000000000006001600160a01b03168152602090f35b34610178576020366003190112610178576001600160a01b03610764611163565b1660005260036020526020604060002054604051908152f35b346101785760603660031901126101785760043567ffffffffffffffff811161017857366023820112156101785767ffffffffffffffff81600401351161017857366024826004013583010111610178576024356044359160ff831692838103610178576107f660018060a01b03600054163314611179565b600654926000198414610a9f576001840160065580610a995750610e10935b610a9357506001925b6040519360e085019185831067ffffffffffffffff841117610a7d5760ff926040526000865260006020870152600060408701526060860152166080840152600160a084015261087181600401356111e8565b61087e60405191826111c6565b60048201358082526024830160208301376000602083600401358301015260c084015260018201600052600160205260c060056040600020855181556020860151600182015560408601516002820155606086015160038201556004810160ff60808801511681549061ff0060a08a0151151560081b169161ffff1916171790550193015192835167ffffffffffffffff8111610a7d5761091f8254611204565b601f8111610a35575b50806020958690601f83116001146109d1576000926109c6575b50508160011b916000199060031b1c19161790555b7f841244a86f2683ea34387dec2a93c35400fa46ff6e21b91ecd2095147bf8d2406040518481528260040135858201528260040135602484016040830137600060408460040135830101526040816001860194601f8019916004013501168101030190a2600160405191018152f35b015190508680610942565b60008581528881209350601f198516905b818110610a1e5750908460019594939210610a05575b505050811b019055610957565b015160001960f88460031b161c191690558680806109f8565b9293896001819287860151815501950193016109e2565b826000526020600020601f830160051c81019160208410610a73575b601f0160051c01905b818110610a675750610928565b60008155600101610a5a565b9091508190610a51565b634e487b7160e01b600052604160045260246000fd5b9261081e565b93610815565b634e487b7160e01b600052601160045260246000fd5b34610178576000366003190112610178576020600654604051908152f35b346101785760208060031936011261017857604051633af32abf60e01b815233600482810191909152359082816024817f00000000000000000000000000000000000000000000000000000000000000006001600160a01b03165afa908115610ca557600091610c6f575b5015610c2c5780151580610c20575b610b569061123e565b8060005260018252610b7560ff60046040600020015460081c1661128a565b60005260018152604060002060018101548015610be457610b9690426111b9565b600382015410610ba95754604051908152f35b60405162461bcd60e51b81526004810183905260136024820152724f7261636c653a207374616c6520707269636560681b6044820152606490fd5b60405162461bcd60e51b815260048101849052601460248201527313dc9858db194e881b9bc81c1c9a58d9481e595d60621b6044820152606490fd5b50600654811115610b4d565b6064826040519062461bcd60e51b825280600483015260248201527f4f7261636c653a20636f6e73756d6572206e6f742077686974656c69737465646044820152fd5b90508281813d8311610c9e575b610c8681836111c6565b81010312610178575180151581036101785783610b3e565b503d610c7c565b6040513d6000823e3d90fd5b60003660031901126101785733600052600260205260ff6040600020541615610d32573415610cf8573360005260036020526040600020805490348201809211610a9f5755005b60405162461bcd60e51b81526020600482015260126024820152714f7261636c653a207a65726f207374616b6560701b6044820152606490fd5b60405162461bcd60e51b815260206004820152601f60248201527f4f7261636c653a206e6f742061207265676973746572656420666565646572006044820152606490fd5b346101785760208060031936011261017857600435600052600190600181526040600020916005830160018401549360028101549060046003820154910154918615159384610ee9575b6040518096600090835493610dd585611204565b948585528b600182169182600014610ec7575050600114610e88575b5050610e05925098949295939803866111c6565b60405196879460e086528651948560e08801526000975b89878a10610e6e57505060ff94959697506101009860008a898b01015288015260408701526060860152818116608086015260081c16151560a0840152151560c0830152601f80199101168101030190f35b8982018101516101008d8c010152909801978a9750610e1c565b8a925060005281600020906000915b858310610eaf575050610e0593508201018a80610df1565b8054838c018501528a94508b93909201918101610e97565b9250935050610e0594915060ff191682840152151560051b8201018a80610df1565b935081610ef688426111b9565b1193610dc1565b3461017857602036600319011261017857610f2360018060a01b03600054163314611179565b60048035600090815260016020526040902001805461ff001916610100179055005b34610178576020366003190112610178576004358060005260016020526002604060002001549060018201809211610a9f5760005260046020526040600020906000526020526020604060002054604051908152f35b3461017857602036600319011261017857610fb4611163565b6000546001600160a01b039190610fce9083163314611179565b168060005260026020526040600020600160ff198254161790557f53813a21bbdd00f3df18b895e7321dea1615b185cccbe44f4a669c3f7a96dfa7600080a2005b34610178576020366003190112610178576001600160a01b03611030611163565b166000526002602052602060ff604060002054166040519015158152f35b3461017857604036600319011261017857611067611163565b6110ae600080808060243560018060a01b038097611089828554163314611179565b1696878352600360205260408320805492838111851461115a575082978880946111b9565b90558254165af13d15611155573d6110c5816111e8565b906110d360405192836111c6565b8152600060203d92013e5b156111105760207fcc2aea518406896ca5b14792d3d940a30a8759e475ae2d59e1b638f787fb99ea91604051908152a2005b60405162461bcd60e51b815260206004820152601d60248201527f4f7261636c653a20736c617368207472616e73666572206661696c65640000006044820152606490fd5b6110de565b978880946111b9565b600435906001600160a01b038216820361017857565b1561118057565b60405162461bcd60e51b815260206004820152601160248201527027b930b1b6329d103737ba1037bbb732b960791b6044820152606490fd5b91908203918211610a9f57565b90601f8019910116810190811067ffffffffffffffff821117610a7d57604052565b67ffffffffffffffff8111610a7d57601f01601f191660200190565b90600182811c92168015611234575b602083101461121e57565b634e487b7160e01b600052602260045260246000fd5b91607f1691611213565b1561124557565b60405162461bcd60e51b815260206004820152601b60248201527f4f7261636c653a206665656420646f6573206e6f7420657869737400000000006044820152606490fd5b1561129157565b60405162461bcd60e51b815260206004820152601360248201527213dc9858db194e8819995959081c185d5cd959606a1b6044820152606490fd5b80548210156112e45760005260206000200190600090565b634e487b7160e01b600052603260045260246000fd5b67ffffffffffffffff8111610a7d5760051b60200190565b80518210156112e45760209160051b010190565b9060018201916000600184129112908015821691151617610a9f57565b908151916001928381146114625761135a816112fa565b9161136860405193846111c6565b818352601f19611377836112fa565b013660208501378460005b838110611444575090505b8181106113a557506113a192931c90611312565b5190565b6113af8184611312565b5160001991908282018281138816610a9f578793845b6113e4575b506113d76113dd91611326565b86611312565b520161138d565b93600082121580611431575b1561142b57506114008187611312565b5161141361140d83611326565b88611312565b52600160ff1b8114610a9f57838894859201916113c5565b936113ca565b508261143d8389611312565b51116113f0565b61144e8184611312565b516114598287611312565b52018590611382565b90919250156112e457602001519056fea2646970667358221220c21c44aaa6af7dc1b713551ebef9559888a56264a4a39421c5552a9256b203cf64736f6c63430008180033","opcodes":"PUSH1 0xA0 CALLVALUE PUSH2 0x85 JUMPI PUSH1 0x1F PUSH2 0x1549 CODESIZE DUP2 SWAP1 SUB SWAP2 DUP3 ADD PUSH1 0x1F NOT AND DUP4 ADD SWAP2 PUSH1 0x1 PUSH1 0x1 PUSH1 0x40 SHL SUB DUP4 GT DUP5 DUP5 LT OR PUSH2 0x8A JUMPI DUP1 DUP5 SWAP3 PUSH1 0x20 SWAP5 PUSH1 0x40 MSTORE DUP4 CODECOPY DUP2 ADD SUB SLT PUSH2 0x85 JUMPI MLOAD PUSH1 0x1 PUSH1 0x1 PUSH1 0xA0 SHL SUB DUP2 AND SWAP1 DUP2 SWAP1 SUB PUSH2 0x85 JUMPI PUSH1 0x0 DUP1 SLOAD PUSH1 0x1 PUSH1 0x1 PUSH1 0xA0 SHL SUB NOT AND CALLER OR SWAP1 SSTORE PUSH1 0x80 MSTORE PUSH1 0x40 MLOAD PUSH2 0x14A8 SWAP1 DUP2 PUSH2 0xA1 DUP3 CODECOPY PUSH1 0x80 MLOAD DUP2 DUP2 DUP2 PUSH2 0x714 ADD MSTORE PUSH2 0xB05 ADD MSTORE RETURN JUMPDEST PUSH1 0x0 DUP1 REVERT JUMPDEST PUSH4 0x4E487B71 PUSH1 0xE0 SHL PUSH1 0x0 MSTORE PUSH1 0x41 PUSH1 0x4 MSTORE PUSH1 0x24 PUSH1 0x0 REVERT INVALID PUSH1 0x80 PUSH1 0x40 MSTORE PUSH1 0x4 CALLDATASIZE LT ISZERO PUSH2 0x1B JUMPI JUMPDEST CALLDATASIZE ISZERO PUSH2 0x19 JUMPI PUSH1 0x0 DUP1 REVERT JUMPDEST STOP JUMPDEST PUSH1 0x0 CALLDATALOAD PUSH1 0xE0 SHR DUP1 PUSH4 0x2FB4D85 EQ PUSH2 0x104E JUMPI DUP1 PUSH4 0xAA31661 EQ PUSH2 0x100F JUMPI DUP1 PUSH4 0x155FB6AE EQ PUSH2 0xF9B JUMPI DUP1 PUSH4 0x16B4ECAF EQ PUSH2 0xF45 JUMPI DUP1 PUSH4 0x23922588 EQ PUSH2 0xEFD JUMPI DUP1 PUSH4 0x364C8073 EQ PUSH2 0xD77 JUMPI DUP1 PUSH4 0x3A4B66F1 EQ PUSH2 0xCB1 JUMPI DUP1 PUSH4 0x4388CBD0 EQ PUSH2 0xAD3 JUMPI DUP1 PUSH4 0x4628986D EQ PUSH2 0xAB5 JUMPI DUP1 PUSH4 0x4EDF698A EQ PUSH2 0x77D JUMPI DUP1 PUSH4 0x6DF66840 EQ PUSH2 0x743 JUMPI DUP1 PUSH4 0x7B103999 EQ PUSH2 0x6FE JUMPI DUP1 PUSH4 0x8DA5CB5B EQ PUSH2 0x6D5 JUMPI DUP1 PUSH4 0x8E1207DC EQ PUSH2 0x664 JUMPI DUP1 PUSH4 0x91937B51 EQ PUSH2 0x620 JUMPI DUP1 PUSH4 0xB3B548EB EQ PUSH2 0x1BC JUMPI DUP1 PUSH4 0xCB1C2B5C EQ PUSH2 0x19A JUMPI DUP1 PUSH4 0xEF62821A EQ PUSH2 0x17D JUMPI PUSH4 0xF2FDE38B SUB PUSH2 0xE JUMPI CALLVALUE PUSH2 0x178 JUMPI PUSH1 0x20 CALLDATASIZE PUSH1 0x3 NOT ADD SLT PUSH2 0x178 JUMPI PUSH2 0x10A PUSH2 0x1163 JUMP JUMPDEST PUSH1 0x0 SLOAD SWAP1 PUSH1 0x1 PUSH1 0x1 PUSH1 0xA0 SHL SUB SWAP1 PUSH2 0x124 CALLER DUP4 DUP6 AND EQ PUSH2 0x1179 JUMP JUMPDEST AND SWAP1 DUP2 ISZERO PUSH2 0x13C JUMPI PUSH1 0x1 PUSH1 0x1 PUSH1 0xA0 SHL SUB NOT AND OR PUSH1 0x0 SSTORE STOP JUMPDEST PUSH1 0x40 MLOAD PUSH3 0x461BCD PUSH1 0xE5 SHL DUP2 MSTORE PUSH1 0x20 PUSH1 0x4 DUP3 ADD MSTORE PUSH1 0x14 PUSH1 0x24 DUP3 ADD MSTORE PUSH20 0x4F7261636C653A207A65726F2061646472657373 PUSH1 0x60 SHL PUSH1 0x44 DUP3 ADD MSTORE PUSH1 0x64 SWAP1 REVERT JUMPDEST PUSH1 0x0 DUP1 REVERT JUMPDEST CALLVALUE PUSH2 0x178 JUMPI PUSH1 0x0 CALLDATASIZE PUSH1 0x3 NOT ADD SLT PUSH2 0x178 JUMPI PUSH1 0x20 PUSH1 0x40 MLOAD PUSH2 0xE10 DUP2 MSTORE RETURN JUMPDEST CALLVALUE PUSH2 0x178 JUMPI PUSH1 0x0 CALLDATASIZE PUSH1 0x3 NOT ADD SLT PUSH2 0x178 JUMPI PUSH1 0x20 PUSH1 0x40 MLOAD PUSH7 0x2386F26FC10000 DUP2 MSTORE RETURN JUMPDEST CALLVALUE PUSH2 0x178 JUMPI PUSH1 0x40 CALLDATASIZE PUSH1 0x3 NOT ADD SLT PUSH2 0x178 JUMPI PUSH1 0x4 CALLDATALOAD PUSH1 0x24 CALLER PUSH1 0x0 MSTORE PUSH1 0x20 PUSH1 0x2 DUP2 MSTORE PUSH1 0xFF PUSH1 0x40 PUSH1 0x0 KECCAK256 SLOAD AND ISZERO PUSH2 0x5DE JUMPI CALLER PUSH1 0x0 MSTORE PUSH1 0x3 SWAP1 PUSH1 0x3 DUP2 MSTORE PUSH7 0x2386F26FC10000 PUSH1 0x40 PUSH1 0x0 KECCAK256 SLOAD LT PUSH2 0x59B JUMPI DUP4 ISZERO ISZERO DUP1 PUSH2 0x58F JUMPI JUMPDEST PUSH2 0x21A SWAP1 PUSH2 0x123E JUMP JUMPDEST DUP4 PUSH1 0x0 MSTORE PUSH1 0x1 DUP1 DUP3 MSTORE PUSH2 0x23A PUSH1 0xFF PUSH1 0x4 PUSH1 0x40 PUSH1 0x0 KECCAK256 ADD SLOAD PUSH1 0x8 SHR AND PUSH2 0x128A JUMP JUMPDEST DUP5 PUSH1 0x0 MSTORE DUP1 DUP3 MSTORE PUSH1 0x40 PUSH1 0x0 KECCAK256 SWAP4 PUSH1 0x2 DUP6 ADD SLOAD SWAP5 DUP3 DUP7 ADD DUP1 SWAP7 GT PUSH2 0x57A JUMPI DUP7 PUSH1 0x0 MSTORE PUSH1 0x5 SWAP5 PUSH1 0x5 DUP6 MSTORE PUSH1 0x40 PUSH1 0x0 KECCAK256 DUP8 PUSH1 0x0 MSTORE DUP6 MSTORE PUSH1 0x40 PUSH1 0x0 KECCAK256 CALLER PUSH1 0x0 MSTORE DUP6 MSTORE PUSH1 0xFF DUP5 PUSH1 0x40 PUSH1 0x0 KECCAK256 ADD SLOAD AND PUSH2 0x52B JUMPI PUSH1 0x40 MLOAD PUSH1 0x40 DUP2 ADD DUP2 DUP2 LT PUSH8 0xFFFFFFFFFFFFFFFF DUP3 GT OR PUSH2 0x516 JUMPI PUSH1 0x40 MSTORE DUP4 CALLDATALOAD DUP2 MSTORE DUP5 DUP7 DUP3 ADD SWAP2 DUP2 DUP4 MSTORE DUP11 PUSH1 0x0 MSTORE PUSH1 0x5 DUP9 MSTORE PUSH1 0x40 PUSH1 0x0 KECCAK256 DUP11 PUSH1 0x0 MSTORE DUP9 MSTORE PUSH1 0x40 PUSH1 0x0 KECCAK256 CALLER PUSH1 0x0 MSTORE DUP9 MSTORE PUSH1 0x40 PUSH1 0x0 KECCAK256 SWAP1 MLOAD DUP2 SSTORE ADD SWAP1 MLOAD ISZERO ISZERO PUSH1 0xFF DUP1 NOT DUP4 SLOAD AND SWAP2 AND OR SWAP1 SSTORE DUP8 PUSH1 0x0 MSTORE PUSH1 0x4 DUP6 MSTORE PUSH1 0x40 PUSH1 0x0 KECCAK256 DUP8 PUSH1 0x0 MSTORE DUP6 MSTORE PUSH1 0x40 PUSH1 0x0 KECCAK256 DUP1 SLOAD SWAP1 PUSH9 0x10000000000000000 DUP3 LT ISZERO PUSH2 0x516 JUMPI SWAP1 PUSH2 0x323 SWAP2 DUP7 DUP3 ADD DUP2 SSTORE PUSH2 0x12CC JUMP JUMPDEST SWAP3 SWAP1 DUP1 SLOAD SWAP4 PUSH1 0x3 SHL PUSH1 0x1 DUP1 PUSH1 0xA0 SHL SUB SWAP5 DUP6 CALLER DUP4 SHL SWAP3 SHL NOT AND OR SWAP1 SSTORE PUSH1 0x40 MLOAD DUP9 DUP2 MSTORE DUP10 PUSH32 0x2655941EF0E01E05D55A873609115593DB7DF65CD101451B9F7E89EDE1613EC9 DUP9 CALLER SWAP4 LOG3 DUP9 PUSH1 0x0 MSTORE PUSH1 0x4 DUP7 MSTORE PUSH1 0x40 PUSH1 0x0 KECCAK256 DUP9 PUSH1 0x0 MSTORE DUP7 MSTORE PUSH1 0xFF PUSH1 0x4 PUSH1 0x40 PUSH1 0x0 KECCAK256 SLOAD SWAP3 ADD SLOAD AND GT ISZERO PUSH2 0x393 JUMPI STOP JUMPDEST DUP8 PUSH1 0x0 MSTORE PUSH1 0x4 DUP6 MSTORE PUSH1 0x40 PUSH1 0x0 KECCAK256 DUP8 PUSH1 0x0 MSTORE DUP6 MSTORE PUSH1 0x40 PUSH1 0x0 KECCAK256 SWAP1 DUP2 SLOAD SWAP7 DUP6 DUP9 EQ PUSH1 0x0 EQ PUSH2 0x451 JUMPI POP POP DUP8 PUSH1 0x0 MSTORE PUSH1 0x5 DUP6 MSTORE PUSH1 0x40 PUSH1 0x0 KECCAK256 DUP8 PUSH1 0x0 MSTORE DUP6 MSTORE PUSH1 0x40 PUSH1 0x0 KECCAK256 SWAP3 DUP7 ISZERO PUSH2 0x43D JUMPI POP PUSH1 0x40 SWAP6 SWAP4 DUP8 SWAP6 SWAP4 PUSH32 0x69748882305E8DCAD98EAF84A01A297E5F37D0B390F0992D9D973C3458D7307C SWAP9 SWAP4 PUSH1 0x2 SWAP4 PUSH1 0x0 MSTORE DUP6 PUSH1 0x0 KECCAK256 SLOAD AND PUSH1 0x0 MSTORE DUP5 MSTORE DUP7 PUSH1 0x0 KECCAK256 SLOAD SWAP1 JUMPDEST DUP10 PUSH1 0x0 MSTORE DUP1 DUP6 MSTORE DUP8 PUSH1 0x0 KECCAK256 SWAP2 DUP3 SSTORE TIMESTAMP SWAP1 DUP3 ADD SSTORE ADD SSTORE DUP4 MLOAD SWAP3 DUP4 MSTORE DUP3 ADD MSTORE LOG2 STOP JUMPDEST PUSH4 0x4E487B71 PUSH1 0xE0 SHL PUSH1 0x0 SWAP1 DUP2 MSTORE PUSH1 0x32 PUSH1 0x4 MSTORE REVERT JUMPDEST SWAP3 SWAP1 SWAP4 POP PUSH2 0x463 DUP8 SWAP7 SWAP6 SWAP10 SWAP9 SWAP8 PUSH2 0x12FA JUMP JUMPDEST SWAP4 PUSH2 0x471 PUSH1 0x40 MLOAD SWAP6 DUP7 PUSH2 0x11C6 JUMP JUMPDEST DUP7 DUP6 MSTORE PUSH1 0x1F NOT PUSH2 0x480 DUP9 PUSH2 0x12FA JUMP JUMPDEST ADD CALLDATASIZE DUP8 DUP8 ADD CALLDATACOPY PUSH1 0x0 JUMPDEST DUP8 DUP2 LT PUSH2 0x4CF JUMPI POP POP POP POP POP SWAP1 DUP4 PUSH1 0x2 PUSH32 0x69748882305E8DCAD98EAF84A01A297E5F37D0B390F0992D9D973C3458D7307C SWAP7 SWAP8 PUSH2 0x4C9 PUSH1 0x40 SWAP8 SWAP7 SWAP6 PUSH2 0x1343 JUMP JUMPDEST SWAP1 PUSH2 0x41D JUMP JUMPDEST DUP11 SWAP1 DUP11 PUSH1 0x0 MSTORE DUP6 DUP9 MSTORE PUSH1 0x40 PUSH1 0x0 KECCAK256 DUP11 PUSH1 0x0 MSTORE DUP9 MSTORE PUSH1 0x40 PUSH1 0x0 KECCAK256 DUP5 PUSH2 0x4F3 DUP4 DUP9 PUSH2 0x12CC JUMP JUMPDEST SWAP1 SLOAD SWAP1 DUP7 SHL SHR AND PUSH1 0x0 MSTORE DUP9 MSTORE PUSH1 0x40 PUSH1 0x0 KECCAK256 SLOAD PUSH2 0x50F DUP3 DUP10 PUSH2 0x1312 JUMP JUMPDEST MSTORE ADD PUSH2 0x489 JUMP JUMPDEST DUP5 PUSH4 0x4E487B71 PUSH1 0xE0 SHL PUSH1 0x0 MSTORE PUSH1 0x41 PUSH1 0x4 MSTORE PUSH1 0x0 REVERT JUMPDEST PUSH1 0x84 DUP6 DUP5 PUSH1 0x40 MLOAD SWAP2 PUSH3 0x461BCD PUSH1 0xE5 SHL DUP4 MSTORE PUSH1 0x4 DUP4 ADD MSTORE DUP1 DUP3 ADD MSTORE PUSH32 0x4F7261636C653A20616C7265616479207375626D697474656420746869732072 PUSH1 0x44 DUP3 ADD MSTORE PUSH4 0x1BDD5B99 PUSH1 0xE2 SHL PUSH1 0x64 DUP3 ADD MSTORE REVERT JUMPDEST POP PUSH4 0x4E487B71 PUSH1 0xE0 SHL PUSH1 0x0 SWAP1 DUP2 MSTORE PUSH1 0x11 PUSH1 0x4 MSTORE REVERT JUMPDEST POP PUSH1 0x6 SLOAD DUP5 GT ISZERO PUSH2 0x211 JUMP JUMPDEST PUSH1 0x64 SWAP1 PUSH1 0x1A DUP5 PUSH1 0x40 MLOAD SWAP3 PUSH3 0x461BCD PUSH1 0xE5 SHL DUP5 MSTORE PUSH1 0x4 DUP5 ADD MSTORE DUP3 ADD MSTORE PUSH32 0x4F7261636C653A20696E73756666696369656E74207374616B65000000000000 PUSH1 0x44 DUP3 ADD MSTORE REVERT JUMPDEST PUSH1 0x1D PUSH1 0x64 SWAP3 PUSH1 0x40 MLOAD SWAP3 PUSH3 0x461BCD PUSH1 0xE5 SHL DUP5 MSTORE PUSH1 0x4 DUP5 ADD MSTORE DUP3 ADD MSTORE PUSH32 0x4F7261636C653A206E6F7420617574686F726973656420666565646572000000 PUSH1 0x44 DUP3 ADD MSTORE REVERT JUMPDEST CALLVALUE PUSH2 0x178 JUMPI PUSH1 0x20 CALLDATASIZE PUSH1 0x3 NOT ADD SLT PUSH2 0x178 JUMPI PUSH2 0x646 PUSH1 0x1 DUP1 PUSH1 0xA0 SHL SUB PUSH1 0x0 SLOAD AND CALLER EQ PUSH2 0x1179 JUMP JUMPDEST PUSH1 0x4 DUP1 CALLDATALOAD PUSH1 0x0 SWAP1 DUP2 MSTORE PUSH1 0x1 PUSH1 0x20 MSTORE PUSH1 0x40 SWAP1 KECCAK256 ADD DUP1 SLOAD PUSH2 0xFF00 NOT AND SWAP1 SSTORE STOP JUMPDEST CALLVALUE PUSH2 0x178 JUMPI PUSH1 0x20 CALLDATASIZE PUSH1 0x3 NOT ADD SLT PUSH2 0x178 JUMPI PUSH2 0x67D PUSH2 0x1163 JUMP JUMPDEST PUSH1 0x0 SLOAD PUSH1 0x1 PUSH1 0x1 PUSH1 0xA0 SHL SUB SWAP2 SWAP1 PUSH2 0x697 SWAP1 DUP4 AND CALLER EQ PUSH2 0x1179 JUMP JUMPDEST AND DUP1 PUSH1 0x0 MSTORE PUSH1 0x2 PUSH1 0x20 MSTORE PUSH1 0x40 PUSH1 0x0 KECCAK256 PUSH1 0xFF NOT DUP2 SLOAD AND SWAP1 SSTORE PUSH32 0xB0BC40F69E0E5F4BB32517529A6B4EB76C452372C18FE559934D27A4A8F88DCE PUSH1 0x0 DUP1 LOG2 STOP JUMPDEST CALLVALUE PUSH2 0x178 JUMPI PUSH1 0x0 CALLDATASIZE PUSH1 0x3 NOT ADD SLT PUSH2 0x178 JUMPI PUSH1 0x0 SLOAD PUSH1 0x40 MLOAD PUSH1 0x1 PUSH1 0x1 PUSH1 0xA0 SHL SUB SWAP1 SWAP2 AND DUP2 MSTORE PUSH1 0x20 SWAP1 RETURN JUMPDEST CALLVALUE PUSH2 0x178 JUMPI PUSH1 0x0 CALLDATASIZE PUSH1 0x3 NOT ADD SLT PUSH2 0x178 JUMPI PUSH1 0x40 MLOAD PUSH32 0x0 PUSH1 0x1 PUSH1 0x1 PUSH1 0xA0 SHL SUB AND DUP2 MSTORE PUSH1 0x20 SWAP1 RETURN JUMPDEST CALLVALUE PUSH2 0x178 JUMPI PUSH1 0x20 CALLDATASIZE PUSH1 0x3 NOT ADD SLT PUSH2 0x178 JUMPI PUSH1 0x1 PUSH1 0x1 PUSH1 0xA0 SHL SUB PUSH2 0x764 PUSH2 0x1163 JUMP JUMPDEST AND PUSH1 0x0 MSTORE PUSH1 0x3 PUSH1 0x20 MSTORE PUSH1 0x20 PUSH1 0x40 PUSH1 0x0 KECCAK256 SLOAD PUSH1 0x40 MLOAD SWAP1 DUP2 MSTORE RETURN JUMPDEST CALLVALUE PUSH2 0x178 JUMPI PUSH1 0x60 CALLDATASIZE PUSH1 0x3 NOT ADD SLT PUSH2 0x178 JUMPI PUSH1 0x4 CALLDATALOAD PUSH8 0xFFFFFFFFFFFFFFFF DUP2 GT PUSH2 0x178 JUMPI CALLDATASIZE PUSH1 0x23 DUP3 ADD SLT ISZERO PUSH2 0x178 JUMPI PUSH8 0xFFFFFFFFFFFFFFFF DUP2 PUSH1 0x4 ADD CALLDATALOAD GT PUSH2 0x178 JUMPI CALLDATASIZE PUSH1 0x24 DUP3 PUSH1 0x4 ADD CALLDATALOAD DUP4 ADD ADD GT PUSH2 0x178 JUMPI PUSH1 0x24 CALLDATALOAD PUSH1 0x44 CALLDATALOAD SWAP2 PUSH1 0xFF DUP4 AND SWAP3 DUP4 DUP2 SUB PUSH2 0x178 JUMPI PUSH2 0x7F6 PUSH1 0x1 DUP1 PUSH1 0xA0 SHL SUB PUSH1 0x0 SLOAD AND CALLER EQ PUSH2 0x1179 JUMP JUMPDEST PUSH1 0x6 SLOAD SWAP3 PUSH1 0x0 NOT DUP5 EQ PUSH2 0xA9F JUMPI PUSH1 0x1 DUP5 ADD PUSH1 0x6 SSTORE DUP1 PUSH2 0xA99 JUMPI POP PUSH2 0xE10 SWAP4 JUMPDEST PUSH2 0xA93 JUMPI POP PUSH1 0x1 SWAP3 JUMPDEST PUSH1 0x40 MLOAD SWAP4 PUSH1 0xE0 DUP6 ADD SWAP2 DUP6 DUP4 LT PUSH8 0xFFFFFFFFFFFFFFFF DUP5 GT OR PUSH2 0xA7D JUMPI PUSH1 0xFF SWAP3 PUSH1 0x40 MSTORE PUSH1 0x0 DUP7 MSTORE PUSH1 0x0 PUSH1 0x20 DUP8 ADD MSTORE PUSH1 0x0 PUSH1 0x40 DUP8 ADD MSTORE PUSH1 0x60 DUP7 ADD MSTORE AND PUSH1 0x80 DUP5 ADD MSTORE PUSH1 0x1 PUSH1 0xA0 DUP5 ADD MSTORE PUSH2 0x871 DUP2 PUSH1 0x4 ADD CALLDATALOAD PUSH2 0x11E8 JUMP JUMPDEST PUSH2 0x87E PUSH1 0x40 MLOAD SWAP2 DUP3 PUSH2 0x11C6 JUMP JUMPDEST PUSH1 0x4 DUP3 ADD CALLDATALOAD DUP1 DUP3 MSTORE PUSH1 0x24 DUP4 ADD PUSH1 0x20 DUP4 ADD CALLDATACOPY PUSH1 0x0 PUSH1 0x20 DUP4 PUSH1 0x4 ADD CALLDATALOAD DUP4 ADD ADD MSTORE PUSH1 0xC0 DUP5 ADD MSTORE PUSH1 0x1 DUP3 ADD PUSH1 0x0 MSTORE PUSH1 0x1 PUSH1 0x20 MSTORE PUSH1 0xC0 PUSH1 0x5 PUSH1 0x40 PUSH1 0x0 KECCAK256 DUP6 MLOAD DUP2 SSTORE PUSH1 0x20 DUP7 ADD MLOAD PUSH1 0x1 DUP3 ADD SSTORE PUSH1 0x40 DUP7 ADD MLOAD PUSH1 0x2 DUP3 ADD SSTORE PUSH1 0x60 DUP7 ADD MLOAD PUSH1 0x3 DUP3 ADD SSTORE PUSH1 0x4 DUP2 ADD PUSH1 0xFF PUSH1 0x80 DUP9 ADD MLOAD AND DUP2 SLOAD SWAP1 PUSH2 0xFF00 PUSH1 0xA0 DUP11 ADD MLOAD ISZERO ISZERO PUSH1 0x8 SHL AND SWAP2 PUSH2 0xFFFF NOT AND OR OR SWAP1 SSTORE ADD SWAP4 ADD MLOAD SWAP3 DUP4 MLOAD PUSH8 0xFFFFFFFFFFFFFFFF DUP2 GT PUSH2 0xA7D JUMPI PUSH2 0x91F DUP3 SLOAD PUSH2 0x1204 JUMP JUMPDEST PUSH1 0x1F DUP2 GT PUSH2 0xA35 JUMPI JUMPDEST POP DUP1 PUSH1 0x20 SWAP6 DUP7 SWAP1 PUSH1 0x1F DUP4 GT PUSH1 0x1 EQ PUSH2 0x9D1 JUMPI PUSH1 0x0 SWAP3 PUSH2 0x9C6 JUMPI JUMPDEST POP POP DUP2 PUSH1 0x1 SHL SWAP2 PUSH1 0x0 NOT SWAP1 PUSH1 0x3 SHL SHR NOT AND OR SWAP1 SSTORE JUMPDEST PUSH32 0x841244A86F2683EA34387DEC2A93C35400FA46FF6E21B91ECD2095147BF8D240 PUSH1 0x40 MLOAD DUP5 DUP2 MSTORE DUP3 PUSH1 0x4 ADD CALLDATALOAD DUP6 DUP3 ADD MSTORE DUP3 PUSH1 0x4 ADD CALLDATALOAD PUSH1 0x24 DUP5 ADD PUSH1 0x40 DUP4 ADD CALLDATACOPY PUSH1 0x0 PUSH1 0x40 DUP5 PUSH1 0x4 ADD CALLDATALOAD DUP4 ADD ADD MSTORE PUSH1 0x40 DUP2 PUSH1 0x1 DUP7 ADD SWAP5 PUSH1 0x1F DUP1 NOT SWAP2 PUSH1 0x4 ADD CALLDATALOAD ADD AND DUP2 ADD SUB ADD SWAP1 LOG2 PUSH1 0x1 PUSH1 0x40 MLOAD SWAP2 ADD DUP2 MSTORE RETURN JUMPDEST ADD MLOAD SWAP1 POP DUP7 DUP1 PUSH2 0x942 JUMP JUMPDEST PUSH1 0x0 DUP6 DUP2 MSTORE DUP9 DUP2 KECCAK256 SWAP4 POP PUSH1 0x1F NOT DUP6 AND SWAP1 JUMPDEST DUP2 DUP2 LT PUSH2 0xA1E JUMPI POP SWAP1 DUP5 PUSH1 0x1 SWAP6 SWAP5 SWAP4 SWAP3 LT PUSH2 0xA05 JUMPI JUMPDEST POP POP POP DUP2 SHL ADD SWAP1 SSTORE PUSH2 0x957 JUMP JUMPDEST ADD MLOAD PUSH1 0x0 NOT PUSH1 0xF8 DUP5 PUSH1 0x3 SHL AND SHR NOT AND SWAP1 SSTORE DUP7 DUP1 DUP1 PUSH2 0x9F8 JUMP JUMPDEST SWAP3 SWAP4 DUP10 PUSH1 0x1 DUP2 SWAP3 DUP8 DUP7 ADD MLOAD DUP2 SSTORE ADD SWAP6 ADD SWAP4 ADD PUSH2 0x9E2 JUMP JUMPDEST DUP3 PUSH1 0x0 MSTORE PUSH1 0x20 PUSH1 0x0 KECCAK256 PUSH1 0x1F DUP4 ADD PUSH1 0x5 SHR DUP2 ADD SWAP2 PUSH1 0x20 DUP5 LT PUSH2 0xA73 JUMPI JUMPDEST PUSH1 0x1F ADD PUSH1 0x5 SHR ADD SWAP1 JUMPDEST DUP2 DUP2 LT PUSH2 0xA67 JUMPI POP PUSH2 0x928 JUMP JUMPDEST PUSH1 0x0 DUP2 SSTORE PUSH1 0x1 ADD PUSH2 0xA5A JUMP JUMPDEST SWAP1 SWAP2 POP DUP2 SWAP1 PUSH2 0xA51 JUMP JUMPDEST PUSH4 0x4E487B71 PUSH1 0xE0 SHL PUSH1 0x0 MSTORE PUSH1 0x41 PUSH1 0x4 MSTORE PUSH1 0x24 PUSH1 0x0 REVERT JUMPDEST SWAP3 PUSH2 0x81E JUMP JUMPDEST SWAP4 PUSH2 0x815 JUMP JUMPDEST PUSH4 0x4E487B71 PUSH1 0xE0 SHL PUSH1 0x0 MSTORE PUSH1 0x11 PUSH1 0x4 MSTORE PUSH1 0x24 PUSH1 0x0 REVERT JUMPDEST CALLVALUE PUSH2 0x178 JUMPI PUSH1 0x0 CALLDATASIZE PUSH1 0x3 NOT ADD SLT PUSH2 0x178 JUMPI PUSH1 0x20 PUSH1 0x6 SLOAD PUSH1 0x40 MLOAD SWAP1 DUP2 MSTORE RETURN JUMPDEST CALLVALUE PUSH2 0x178 JUMPI PUSH1 0x20 DUP1 PUSH1 0x3 NOT CALLDATASIZE ADD SLT PUSH2 0x178 JUMPI PUSH1 0x40 MLOAD PUSH4 0x3AF32ABF PUSH1 0xE0 SHL DUP2 MSTORE CALLER PUSH1 0x4 DUP3 DUP2 ADD SWAP2 SWAP1 SWAP2 MSTORE CALLDATALOAD SWAP1 DUP3 DUP2 PUSH1 0x24 DUP2 PUSH32 0x0 PUSH1 0x1 PUSH1 0x1 PUSH1 0xA0 SHL SUB AND GAS STATICCALL SWAP1 DUP2 ISZERO PUSH2 0xCA5 JUMPI PUSH1 0x0 SWAP2 PUSH2 0xC6F JUMPI JUMPDEST POP ISZERO PUSH2 0xC2C JUMPI DUP1 ISZERO ISZERO DUP1 PUSH2 0xC20 JUMPI JUMPDEST PUSH2 0xB56 SWAP1 PUSH2 0x123E JUMP JUMPDEST DUP1 PUSH1 0x0 MSTORE PUSH1 0x1 DUP3 MSTORE PUSH2 0xB75 PUSH1 0xFF PUSH1 0x4 PUSH1 0x40 PUSH1 0x0 KECCAK256 ADD SLOAD PUSH1 0x8 SHR AND PUSH2 0x128A JUMP JUMPDEST PUSH1 0x0 MSTORE PUSH1 0x1 DUP2 MSTORE PUSH1 0x40 PUSH1 0x0 KECCAK256 PUSH1 0x1 DUP2 ADD SLOAD DUP1 ISZERO PUSH2 0xBE4 JUMPI PUSH2 0xB96 SWAP1 TIMESTAMP PUSH2 0x11B9 JUMP JUMPDEST PUSH1 0x3 DUP3 ADD SLOAD LT PUSH2 0xBA9 JUMPI SLOAD PUSH1 0x40 MLOAD SWAP1 DUP2 MSTORE RETURN JUMPDEST PUSH1 0x40 MLOAD PUSH3 0x461BCD PUSH1 0xE5 SHL DUP2 MSTORE PUSH1 0x4 DUP2 ADD DUP4 SWAP1 MSTORE PUSH1 0x13 PUSH1 0x24 DUP3 ADD MSTORE PUSH19 0x4F7261636C653A207374616C65207072696365 PUSH1 0x68 SHL PUSH1 0x44 DUP3 ADD MSTORE PUSH1 0x64 SWAP1 REVERT JUMPDEST PUSH1 0x40 MLOAD PUSH3 0x461BCD PUSH1 0xE5 SHL DUP2 MSTORE PUSH1 0x4 DUP2 ADD DUP5 SWAP1 MSTORE PUSH1 0x14 PUSH1 0x24 DUP3 ADD MSTORE PUSH20 0x13DC9858DB194E881B9BC81C1C9A58D9481E595D PUSH1 0x62 SHL PUSH1 0x44 DUP3 ADD MSTORE PUSH1 0x64 SWAP1 REVERT JUMPDEST POP PUSH1 0x6 SLOAD DUP2 GT ISZERO PUSH2 0xB4D JUMP JUMPDEST PUSH1 0x64 DUP3 PUSH1 0x40 MLOAD SWAP1 PUSH3 0x461BCD PUSH1 0xE5 SHL DUP3 MSTORE DUP1 PUSH1 0x4 DUP4 ADD MSTORE PUSH1 0x24 DUP3 ADD MSTORE PUSH32 0x4F7261636C653A20636F6E73756D6572206E6F742077686974656C6973746564 PUSH1 0x44 DUP3 ADD MSTORE REVERT JUMPDEST SWAP1 POP DUP3 DUP2 DUP2 RETURNDATASIZE DUP4 GT PUSH2 0xC9E JUMPI JUMPDEST PUSH2 0xC86 DUP2 DUP4 PUSH2 0x11C6 JUMP JUMPDEST DUP2 ADD SUB SLT PUSH2 0x178 JUMPI MLOAD DUP1 ISZERO ISZERO DUP2 SUB PUSH2 0x178 JUMPI DUP4 PUSH2 0xB3E JUMP JUMPDEST POP RETURNDATASIZE PUSH2 0xC7C JUMP JUMPDEST PUSH1 0x40 MLOAD RETURNDATASIZE PUSH1 0x0 DUP3 RETURNDATACOPY RETURNDATASIZE SWAP1 REVERT JUMPDEST PUSH1 0x0 CALLDATASIZE PUSH1 0x3 NOT ADD SLT PUSH2 0x178 JUMPI CALLER PUSH1 0x0 MSTORE PUSH1 0x2 PUSH1 0x20 MSTORE PUSH1 0xFF PUSH1 0x40 PUSH1 0x0 KECCAK256 SLOAD AND ISZERO PUSH2 0xD32 JUMPI CALLVALUE ISZERO PUSH2 0xCF8 JUMPI CALLER PUSH1 0x0 MSTORE PUSH1 0x3 PUSH1 0x20 MSTORE PUSH1 0x40 PUSH1 0x0 KECCAK256 DUP1 SLOAD SWAP1 CALLVALUE DUP3 ADD DUP1 SWAP3 GT PUSH2 0xA9F JUMPI SSTORE STOP JUMPDEST PUSH1 0x40 MLOAD PUSH3 0x461BCD PUSH1 0xE5 SHL DUP2 MSTORE PUSH1 0x20 PUSH1 0x4 DUP3 ADD MSTORE PUSH1 0x12 PUSH1 0x24 DUP3 ADD MSTORE PUSH18 0x4F7261636C653A207A65726F207374616B65 PUSH1 0x70 SHL PUSH1 0x44 DUP3 ADD MSTORE PUSH1 0x64 SWAP1 REVERT JUMPDEST PUSH1 0x40 MLOAD PUSH3 0x461BCD PUSH1 0xE5 SHL DUP2 MSTORE PUSH1 0x20 PUSH1 0x4 DUP3 ADD MSTORE PUSH1 0x1F PUSH1 0x24 DUP3 ADD MSTORE PUSH32 0x4F7261636C653A206E6F74206120726567697374657265642066656564657200 PUSH1 0x44 DUP3 ADD MSTORE PUSH1 0x64 SWAP1 REVERT JUMPDEST CALLVALUE PUSH2 0x178 JUMPI PUSH1 0x20 DUP1 PUSH1 0x3 NOT CALLDATASIZE ADD SLT PUSH2 0x178 JUMPI PUSH1 0x4 CALLDATALOAD PUSH1 0x0 MSTORE PUSH1 0x1 SWAP1 PUSH1 0x1 DUP2 MSTORE PUSH1 0x40 PUSH1 0x0 KECCAK256 SWAP2 PUSH1 0x5 DUP4 ADD PUSH1 0x1 DUP5 ADD SLOAD SWAP4 PUSH1 0x2 DUP2 ADD SLOAD SWAP1 PUSH1 0x4 PUSH1 0x3 DUP3 ADD SLOAD SWAP2 ADD SLOAD SWAP2 DUP7 ISZERO ISZERO SWAP4 DUP5 PUSH2 0xEE9 JUMPI JUMPDEST PUSH1 0x40 MLOAD DUP1 SWAP7 PUSH1 0x0 SWAP1 DUP4 SLOAD SWAP4 PUSH2 0xDD5 DUP6 PUSH2 0x1204 JUMP JUMPDEST SWAP5 DUP6 DUP6 MSTORE DUP12 PUSH1 0x1 DUP3 AND SWAP2 DUP3 PUSH1 0x0 EQ PUSH2 0xEC7 JUMPI POP POP PUSH1 0x1 EQ PUSH2 0xE88 JUMPI JUMPDEST POP POP PUSH2 0xE05 SWAP3 POP SWAP9 SWAP5 SWAP3 SWAP6 SWAP4 SWAP9 SUB DUP7 PUSH2 0x11C6 JUMP JUMPDEST PUSH1 0x40 MLOAD SWAP7 DUP8 SWAP5 PUSH1 0xE0 DUP7 MSTORE DUP7 MLOAD SWAP5 DUP6 PUSH1 0xE0 DUP9 ADD MSTORE PUSH1 0x0 SWAP8 JUMPDEST DUP10 DUP8 DUP11 LT PUSH2 0xE6E JUMPI POP POP PUSH1 0xFF SWAP5 SWAP6 SWAP7 SWAP8 POP PUSH2 0x100 SWAP9 PUSH1 0x0 DUP11 DUP10 DUP12 ADD ADD MSTORE DUP9 ADD MSTORE PUSH1 0x40 DUP8 ADD MSTORE PUSH1 0x60 DUP7 ADD MSTORE DUP2 DUP2 AND PUSH1 0x80 DUP7 ADD MSTORE PUSH1 0x8 SHR AND ISZERO ISZERO PUSH1 0xA0 DUP5 ADD MSTORE ISZERO ISZERO PUSH1 0xC0 DUP4 ADD MSTORE PUSH1 0x1F DUP1 NOT SWAP2 ADD AND DUP2 ADD SUB ADD SWAP1 RETURN JUMPDEST DUP10 DUP3 ADD DUP2 ADD MLOAD PUSH2 0x100 DUP14 DUP13 ADD ADD MSTORE SWAP1 SWAP9 ADD SWAP8 DUP11 SWAP8 POP PUSH2 0xE1C JUMP JUMPDEST DUP11 SWAP3 POP PUSH1 0x0 MSTORE DUP2 PUSH1 0x0 KECCAK256 SWAP1 PUSH1 0x0 SWAP2 JUMPDEST DUP6 DUP4 LT PUSH2 0xEAF JUMPI POP POP PUSH2 0xE05 SWAP4 POP DUP3 ADD ADD DUP11 DUP1 PUSH2 0xDF1 JUMP JUMPDEST DUP1 SLOAD DUP4 DUP13 ADD DUP6 ADD MSTORE DUP11 SWAP5 POP DUP12 SWAP4 SWAP1 SWAP3 ADD SWAP2 DUP2 ADD PUSH2 0xE97 JUMP JUMPDEST SWAP3 POP SWAP4 POP POP PUSH2 0xE05 SWAP5 SWAP2 POP PUSH1 0xFF NOT AND DUP3 DUP5 ADD MSTORE ISZERO ISZERO PUSH1 0x5 SHL DUP3 ADD ADD DUP11 DUP1 PUSH2 0xDF1 JUMP JUMPDEST SWAP4 POP DUP2 PUSH2 0xEF6 DUP9 TIMESTAMP PUSH2 0x11B9 JUMP JUMPDEST GT SWAP4 PUSH2 0xDC1 JUMP JUMPDEST CALLVALUE PUSH2 0x178 JUMPI PUSH1 0x20 CALLDATASIZE PUSH1 0x3 NOT ADD SLT PUSH2 0x178 JUMPI PUSH2 0xF23 PUSH1 0x1 DUP1 PUSH1 0xA0 SHL SUB PUSH1 0x0 SLOAD AND CALLER EQ PUSH2 0x1179 JUMP JUMPDEST PUSH1 0x4 DUP1 CALLDATALOAD PUSH1 0x0 SWAP1 DUP2 MSTORE PUSH1 0x1 PUSH1 0x20 MSTORE PUSH1 0x40 SWAP1 KECCAK256 ADD DUP1 SLOAD PUSH2 0xFF00 NOT AND PUSH2 0x100 OR SWAP1 SSTORE STOP JUMPDEST CALLVALUE PUSH2 0x178 JUMPI PUSH1 0x20 CALLDATASIZE PUSH1 0x3 NOT ADD SLT PUSH2 0x178 JUMPI PUSH1 0x4 CALLDATALOAD DUP1 PUSH1 0x0 MSTORE PUSH1 0x1 PUSH1 0x20 MSTORE PUSH1 0x2 PUSH1 0x40 PUSH1 0x0 KECCAK256 ADD SLOAD SWAP1 PUSH1 0x1 DUP3 ADD DUP1 SWAP3 GT PUSH2 0xA9F JUMPI PUSH1 0x0 MSTORE PUSH1 0x4 PUSH1 0x20 MSTORE PUSH1 0x40 PUSH1 0x0 KECCAK256 SWAP1 PUSH1 0x0 MSTORE PUSH1 0x20 MSTORE PUSH1 0x20 PUSH1 0x40 PUSH1 0x0 KECCAK256 SLOAD PUSH1 0x40 MLOAD SWAP1 DUP2 MSTORE RETURN JUMPDEST CALLVALUE PUSH2 0x178 JUMPI PUSH1 0x20 CALLDATASIZE PUSH1 0x3 NOT ADD SLT PUSH2 0x178 JUMPI PUSH2 0xFB4 PUSH2 0x1163 JUMP JUMPDEST PUSH1 0x0 SLOAD PUSH1 0x1 PUSH1 0x1 PUSH1 0xA0 SHL SUB SWAP2 SWAP1 PUSH2 0xFCE SWAP1 DUP4 AND CALLER EQ PUSH2 0x1179 JUMP JUMPDEST AND DUP1 PUSH1 0x0 MSTORE PUSH1 0x2 PUSH1 0x20 MSTORE PUSH1 0x40 PUSH1 0x0 KECCAK256 PUSH1 0x1 PUSH1 0xFF NOT DUP3 SLOAD AND OR SWAP1 SSTORE PUSH32 0x53813A21BBDD00F3DF18B895E7321DEA1615B185CCCBE44F4A669C3F7A96DFA7 PUSH1 0x0 DUP1 LOG2 STOP JUMPDEST CALLVALUE PUSH2 0x178 JUMPI PUSH1 0x20 CALLDATASIZE PUSH1 0x3 NOT ADD SLT PUSH2 0x178 JUMPI PUSH1 0x1 PUSH1 0x1 PUSH1 0xA0 SHL SUB PUSH2 0x1030 PUSH2 0x1163 JUMP JUMPDEST AND PUSH1 0x0 MSTORE PUSH1 0x2 PUSH1 0x20 MSTORE PUSH1 0x20 PUSH1 0xFF PUSH1 0x40 PUSH1 0x0 KECCAK256 SLOAD AND PUSH1 0x40 MLOAD SWAP1 ISZERO ISZERO DUP2 MSTORE RETURN JUMPDEST CALLVALUE PUSH2 0x178 JUMPI PUSH1 0x40 CALLDATASIZE PUSH1 0x3 NOT ADD SLT PUSH2 0x178 JUMPI PUSH2 0x1067 PUSH2 0x1163 JUMP JUMPDEST PUSH2 0x10AE PUSH1 0x0 DUP1 DUP1 DUP1 PUSH1 0x24 CALLDATALOAD PUSH1 0x1 DUP1 PUSH1 0xA0 SHL SUB DUP1 SWAP8 PUSH2 0x1089 DUP3 DUP6 SLOAD AND CALLER EQ PUSH2 0x1179 JUMP JUMPDEST AND SWAP7 DUP8 DUP4 MSTORE PUSH1 0x3 PUSH1 0x20 MSTORE PUSH1 0x40 DUP4 KECCAK256 DUP1 SLOAD SWAP3 DUP4 DUP2 GT DUP6 EQ PUSH2 0x115A JUMPI POP DUP3 SWAP8 DUP9 DUP1 SWAP5 PUSH2 0x11B9 JUMP JUMPDEST SWAP1 SSTORE DUP3 SLOAD AND GAS CALL RETURNDATASIZE ISZERO PUSH2 0x1155 JUMPI RETURNDATASIZE PUSH2 0x10C5 DUP2 PUSH2 0x11E8 JUMP JUMPDEST SWAP1 PUSH2 0x10D3 PUSH1 0x40 MLOAD SWAP3 DUP4 PUSH2 0x11C6 JUMP JUMPDEST DUP2 MSTORE PUSH1 0x0 PUSH1 0x20 RETURNDATASIZE SWAP3 ADD RETURNDATACOPY JUMPDEST ISZERO PUSH2 0x1110 JUMPI PUSH1 0x20 PUSH32 0xCC2AEA518406896CA5B14792D3D940A30A8759E475AE2D59E1B638F787FB99EA SWAP2 PUSH1 0x40 MLOAD SWAP1 DUP2 MSTORE LOG2 STOP JUMPDEST PUSH1 0x40 MLOAD PUSH3 0x461BCD PUSH1 0xE5 SHL DUP2 MSTORE PUSH1 0x20 PUSH1 0x4 DUP3 ADD MSTORE PUSH1 0x1D PUSH1 0x24 DUP3 ADD MSTORE PUSH32 0x4F7261636C653A20736C617368207472616E73666572206661696C6564000000 PUSH1 0x44 DUP3 ADD MSTORE PUSH1 0x64 SWAP1 REVERT JUMPDEST PUSH2 0x10DE JUMP JUMPDEST SWAP8 DUP9 DUP1 SWAP5 PUSH2 0x11B9 JUMP JUMPDEST PUSH1 0x4 CALLDATALOAD SWAP1 PUSH1 0x1 PUSH1 0x1 PUSH1 0xA0 SHL SUB DUP3 AND DUP3 SUB PUSH2 0x178 JUMPI JUMP JUMPDEST ISZERO PUSH2 0x1180 JUMPI JUMP JUMPDEST PUSH1 0x40 MLOAD PUSH3 0x461BCD PUSH1 0xE5 SHL DUP2 MSTORE PUSH1 0x20 PUSH1 0x4 DUP3 ADD MSTORE PUSH1 0x11 PUSH1 0x24 DUP3 ADD MSTORE PUSH17 0x27B930B1B6329D103737BA1037BBB732B9 PUSH1 0x79 SHL PUSH1 0x44 DUP3 ADD MSTORE PUSH1 0x64 SWAP1 REVERT JUMPDEST SWAP2 SWAP1 DUP3 SUB SWAP2 DUP3 GT PUSH2 0xA9F JUMPI JUMP JUMPDEST SWAP1 PUSH1 0x1F DUP1 NOT SWAP2 ADD AND DUP2 ADD SWAP1 DUP2 LT PUSH8 0xFFFFFFFFFFFFFFFF DUP3 GT OR PUSH2 0xA7D JUMPI PUSH1 0x40 MSTORE JUMP JUMPDEST PUSH8 0xFFFFFFFFFFFFFFFF DUP2 GT PUSH2 0xA7D JUMPI PUSH1 0x1F ADD PUSH1 0x1F NOT AND PUSH1 0x20 ADD SWAP1 JUMP JUMPDEST SWAP1 PUSH1 0x1 DUP3 DUP2 SHR SWAP3 AND DUP1 ISZERO PUSH2 0x1234 JUMPI JUMPDEST PUSH1 0x20 DUP4 LT EQ PUSH2 0x121E JUMPI JUMP JUMPDEST PUSH4 0x4E487B71 PUSH1 0xE0 SHL PUSH1 0x0 MSTORE PUSH1 0x22 PUSH1 0x4 MSTORE PUSH1 0x24 PUSH1 0x0 REVERT JUMPDEST SWAP2 PUSH1 0x7F AND SWAP2 PUSH2 0x1213 JUMP JUMPDEST ISZERO PUSH2 0x1245 JUMPI JUMP JUMPDEST PUSH1 0x40 MLOAD PUSH3 0x461BCD PUSH1 0xE5 SHL DUP2 MSTORE PUSH1 0x20 PUSH1 0x4 DUP3 ADD MSTORE PUSH1 0x1B PUSH1 0x24 DUP3 ADD MSTORE PUSH32 0x4F7261636C653A206665656420646F6573206E6F742065786973740000000000 PUSH1 0x44 DUP3 ADD MSTORE PUSH1 0x64 SWAP1 REVERT JUMPDEST ISZERO PUSH2 0x1291 JUMPI JUMP JUMPDEST PUSH1 0x40 MLOAD PUSH3 0x461BCD PUSH1 0xE5 SHL DUP2 MSTORE PUSH1 0x20 PUSH1 0x4 DUP3 ADD MSTORE PUSH1 0x13 PUSH1 0x24 DUP3 ADD MSTORE PUSH19 0x13DC9858DB194E8819995959081C185D5CD959 PUSH1 0x6A SHL PUSH1 0x44 DUP3 ADD MSTORE PUSH1 0x64 SWAP1 REVERT JUMPDEST DUP1 SLOAD DUP3 LT ISZERO PUSH2 0x12E4 JUMPI PUSH1 0x0 MSTORE PUSH1 0x20 PUSH1 0x0 KECCAK256 ADD SWAP1 PUSH1 0x0 SWAP1 JUMP JUMPDEST PUSH4 0x4E487B71 PUSH1 0xE0 SHL PUSH1 0x0 MSTORE PUSH1 0x32 PUSH1 0x4 MSTORE PUSH1 0x24 PUSH1 0x0 REVERT JUMPDEST PUSH8 0xFFFFFFFFFFFFFFFF DUP2 GT PUSH2 0xA7D JUMPI PUSH1 0x5 SHL PUSH1 0x20 ADD SWAP1 JUMP JUMPDEST DUP1 MLOAD DUP3 LT ISZERO PUSH2 0x12E4 JUMPI PUSH1 0x20 SWAP2 PUSH1 0x5 SHL ADD ADD SWAP1 JUMP JUMPDEST SWAP1 PUSH1 0x1 DUP3 ADD SWAP2 PUSH1 0x0 PUSH1 0x1 DUP5 SLT SWAP2 SLT SWAP1 DUP1 ISZERO DUP3 AND SWAP2 ISZERO AND OR PUSH2 0xA9F JUMPI JUMP JUMPDEST SWAP1 DUP2 MLOAD SWAP2 PUSH1 0x1 SWAP3 DUP4 DUP2 EQ PUSH2 0x1462 JUMPI PUSH2 0x135A DUP2 PUSH2 0x12FA JUMP JUMPDEST SWAP2 PUSH2 0x1368 PUSH1 0x40 MLOAD SWAP4 DUP5 PUSH2 0x11C6 JUMP JUMPDEST DUP2 DUP4 MSTORE PUSH1 0x1F NOT PUSH2 0x1377 DUP4 PUSH2 0x12FA JUMP JUMPDEST ADD CALLDATASIZE PUSH1 0x20 DUP6 ADD CALLDATACOPY DUP5 PUSH1 0x0 JUMPDEST DUP4 DUP2 LT PUSH2 0x1444 JUMPI POP SWAP1 POP JUMPDEST DUP2 DUP2 LT PUSH2 0x13A5 JUMPI POP PUSH2 0x13A1 SWAP3 SWAP4 SHR SWAP1 PUSH2 0x1312 JUMP JUMPDEST MLOAD SWAP1 JUMP JUMPDEST PUSH2 0x13AF DUP2 DUP5 PUSH2 0x1312 JUMP JUMPDEST MLOAD PUSH1 0x0 NOT SWAP2 SWAP1 DUP3 DUP3 ADD DUP3 DUP2 SGT DUP9 AND PUSH2 0xA9F JUMPI DUP8 SWAP4 DUP5 JUMPDEST PUSH2 0x13E4 JUMPI JUMPDEST POP PUSH2 0x13D7 PUSH2 0x13DD SWAP2 PUSH2 0x1326 JUMP JUMPDEST DUP7 PUSH2 0x1312 JUMP JUMPDEST MSTORE ADD PUSH2 0x138D JUMP JUMPDEST SWAP4 PUSH1 0x0 DUP3 SLT ISZERO DUP1 PUSH2 0x1431 JUMPI JUMPDEST ISZERO PUSH2 0x142B JUMPI POP PUSH2 0x1400 DUP2 DUP8 PUSH2 0x1312 JUMP JUMPDEST MLOAD PUSH2 0x1413 PUSH2 0x140D DUP4 PUSH2 0x1326 JUMP JUMPDEST DUP9 PUSH2 0x1312 JUMP JUMPDEST MSTORE PUSH1 0x1 PUSH1 0xFF SHL DUP2 EQ PUSH2 0xA9F JUMPI DUP4 DUP9 SWAP5 DUP6 SWAP3 ADD SWAP2 PUSH2 0x13C5 JUMP JUMPDEST SWAP4 PUSH2 0x13CA JUMP JUMPDEST POP DUP3 PUSH2 0x143D DUP4 DUP10 PUSH2 0x1312 JUMP JUMPDEST MLOAD GT PUSH2 0x13F0 JUMP JUMPDEST PUSH2 0x144E DUP2 DUP5 PUSH2 0x1312 JUMP JUMPDEST MLOAD PUSH2 0x1459 DUP3 DUP8 PUSH2 0x1312 JUMP JUMPDEST MSTORE ADD DUP6 SWAP1 PUSH2 0x1382 JUMP JUMPDEST SWAP1 SWAP2 SWAP3 POP ISZERO PUSH2 0x12E4 JUMPI PUSH1 0x20 ADD MLOAD SWAP1 JUMP INVALID LOG2 PUSH5 0x6970667358 0x22 SLT KECCAK256 0xC2 SHR PREVRANDAO 0xAA 0xA6 0xAF PUSH30 0xC1B713551EBEF9559888A56264A4A39421C5552A9256B203CF64736F6C63 NUMBER STOP ADDMOD XOR STOP CALLER "},"methodIdentifiers":{"DEFAULT_TTL()":"ef62821a","MIN_STAKE()":"cb1c2b5c","addFeeder(address)":"155fb6ae","createFeed(string,uint256,uint8)":"4edf698a","feedCount()":"4628986d","feederStake(address)":"6df66840","feeders(address)":"0aa31661","getEncryptedPrice(uint256)":"4388cbd0","getFeedInfo(uint256)":"364c8073","owner()":"8da5cb5b","pauseFeed(uint256)":"91937b51","pendingSubmissions(uint256)":"16b4ecaf","registry()":"7b103999","removeFeeder(address)":"8e1207dc","resumeFeed(uint256)":"23922588","slash(address,uint256)":"02fb4d85","stake()":"3a4b66f1","submitPrice(uint256,uint256)":"b3b548eb","transferOwnership(address)":"f2fde38b"}}}}}