{"contracts/PrivateLiquidator.sol":{"PrivateLiquidator":{"abi":[{"inputs":[{"internalType":"address","name":"_oracle","type":"address"}],"stateMutability":"nonpayable","type":"constructor"},{"anonymous":false,"inputs":[{"indexed":true,"internalType":"uint256","name":"positionId","type":"uint256"},{"indexed":true,"internalType":"address","name":"owner","type":"address"}],"name":"PositionClosed","type":"event"},{"anonymous":false,"inputs":[{"indexed":true,"internalType":"uint256","name":"positionId","type":"uint256"},{"indexed":true,"internalType":"address","name":"liquidator","type":"address"},{"indexed":false,"internalType":"uint256","name":"collateral","type":"uint256"}],"name":"PositionLiquidated","type":"event"},{"anonymous":false,"inputs":[{"indexed":true,"internalType":"uint256","name":"positionId","type":"uint256"},{"indexed":true,"internalType":"address","name":"owner","type":"address"},{"indexed":false,"internalType":"uint256","name":"collateral","type":"uint256"}],"name":"PositionOpened","type":"event"},{"inputs":[{"internalType":"uint256","name":"positionId","type":"uint256"}],"name":"closePosition","outputs":[],"stateMutability":"nonpayable","type":"function"},{"inputs":[{"internalType":"uint256","name":"positionId","type":"uint256"}],"name":"isLiquidatable","outputs":[{"internalType":"bool","name":"","type":"bool"}],"stateMutability":"view","type":"function"},{"inputs":[{"internalType":"uint256","name":"positionId","type":"uint256"}],"name":"liquidate","outputs":[],"stateMutability":"nonpayable","type":"function"},{"inputs":[{"internalType":"uint256","name":"feedId","type":"uint256"},{"internalType":"uint256","name":"encLiquidationPrice","type":"uint256"}],"name":"openPosition","outputs":[{"internalType":"uint256","name":"positionId","type":"uint256"}],"stateMutability":"payable","type":"function"},{"inputs":[],"name":"oracle","outputs":[{"internalType":"contract IFHEOracleBridge","name":"","type":"address"}],"stateMutability":"view","type":"function"},{"inputs":[],"name":"owner","outputs":[{"internalType":"address","name":"","type":"address"}],"stateMutability":"view","type":"function"},{"inputs":[],"name":"positionCount","outputs":[{"internalType":"uint256","name":"","type":"uint256"}],"stateMutability":"view","type":"function"},{"inputs":[{"internalType":"uint256","name":"","type":"uint256"}],"name":"positions","outputs":[{"internalType":"address","name":"owner","type":"address"},{"internalType":"uint256","name":"collateral","type":"uint256"},{"internalType":"uint256","name":"encLiquidationPrice","type":"uint256"},{"internalType":"uint256","name":"feedId","type":"uint256"},{"internalType":"bool","name":"active","type":"bool"},{"internalType":"uint256","name":"createdAt","type":"uint256"}],"stateMutability":"view","type":"function"},{"inputs":[{"internalType":"address","name":"newOracle","type":"address"}],"name":"updateOracle","outputs":[],"stateMutability":"nonpayable","type":"function"},{"stateMutability":"payable","type":"receive"}],"evm":{"bytecode":{"linkReferences":{},"object":"60803461007c57601f6108f438819003918201601f19168301916001600160401b038311848410176100815780849260209460405283398101031261007c57516001600160a01b0381169081900361007c5760018060a01b0319908160005416176000553390600154161760015560405161085c90816100988239f35b600080fd5b634e487b7160e01b600052604160045260246000fdfe6080604081815260049182361015610022575b505050361561002057600080fd5b005b600092833560e01c9182631cb44dfc1461064157508163211a4443146106155781633012b05c146104a8578163415f1240146102d45781637dc0d1d0146102ac5781638da5cb5b1461028357816399fbab8814610218578163a126d601146100b6575063e7702d05146100955780610012565b346100b257816003193601126100b2576020906003549051908152f35b5080fd5b905034610214576020366003190112610214578035808452600260205282842080549193916001600160a01b031633036101d15782810180549160ff83161561018e5786809381809460018295019081549360ff1916905555335af161011a6107e6565b501561014b57505033907fcefaf961c5013063cf501ffd9f9382e9b9c4b15741ad032fe93d7e9c7c733b228380a380f35b906020606492519162461bcd60e51b8352820152601960248201527f4c697175696461746f723a20726566756e64206661696c6564000000000000006044820152fd5b835162461bcd60e51b8152602081870152601a60248201527f4c697175696461746f723a20616c726561647920636c6f7365640000000000006044820152606490fd5b815162461bcd60e51b8152602081850152601e60248201527f4c697175696461746f723a206e6f7420706f736974696f6e206f776e657200006044820152606490fd5b8280fd5b91905034610214576020366003190112610214578060c0938335815260026020522060018060a01b0381541692600182015492600283015490600560ff60038601549486015416940154948151968752602087015285015260608401521515608083015260a0820152f35b5050346100b257816003193601126100b25760015490516001600160a01b039091168152602090f35b5050346100b257816003193601126100b257905490516001600160a01b039091168152602090f35b91905034610214576020806003193601126104a4578235916102f5836106fe565b156104635782855260028252808520938560018601828154970160ff19815416905555600585028581046005148615171561045057606490048086039086821161043d578780808093335af16103496107e6565b50156103f05760015487918291829182916001600160a01b03165af161036d6107e6565b50156103a15750907f26dc706c10b1f8a4bf68a2f50b9a025921938e72ee2ab65f50815438fba4a88d91519384523393a380f35b82608492519162461bcd60e51b8352820152602560248201527f4c697175696461746f723a2072656d61696e646572207472616e736665722066604482015264185a5b195960da1b6064820152fd5b5082608492519162461bcd60e51b8352820152602260248201527f4c697175696461746f723a20726577617264207472616e73666572206661696c604482015261195960f21b6064820152fd5b634e487b7160e01b885260118352602488fd5b634e487b7160e01b875260118252602487fd5b5162461bcd60e51b81529283015250601c60248201527f4c697175696461746f723a206e6f74206c6971756964617461626c65000000006044820152606490fd5b8380fd5b8383806003193601126100b25734156105c75760035460001981146105b457600101918260035581519060c0820182811067ffffffffffffffff8211176105a1579060209560059285523384528684019034825285850160243581526060860190823582526080870193600185528860a08901964288528b815260028d52209760018060a01b039051166bffffffffffffffffffffffff60a01b89541617885551600188015551600287015551600386015584019051151560ff80198354169116179055519101558051348152827feaa60b48f40915eec9cac9494da9c20cd39a8da2477334ecd0d97cab6c2de05b853393a351908152f35b634e487b7160e01b825260418652602482fd5b634e487b7160e01b835260118452602483fd5b5162461bcd60e51b8152602081840152602360248201527f4c697175696461746f723a206d7573742070726f7669646520636f6c6c6174656044820152621c985b60ea1b6064820152608490fd5b82843461063e57602036600319011261063e5750610635602092356106fe565b90519015158152f35b80fd5b849250346102145760203660031901126102145781356001600160a01b0381811693918490036106c25760015416330361068957505081546001600160a01b03191617815580f35b62461bcd60e51b825260209082015260156024820152742634b8bab4b230ba37b91d103737ba1037bbb732b960591b6044820152606490fd5b8480fd5b90601f8019910116810190811067ffffffffffffffff8211176106e857604052565b634e487b7160e01b600052604160045260246000fd5b600090815260209060028252604081209060ff600483015416156107a15760018060a01b03815416908360038401546024604051809581936304388cbd60e41b835260048301525afa938415610794578194610760575b505050600201541190565b909180939450813d831161078d575b61077981836106c6565b8101031261063e5750519060023880610755565b503d61076f565b50604051903d90823e3d90fd5b60405162461bcd60e51b815260048101849052601f60248201527f4c697175696461746f723a20706f736974696f6e206e6f7420616374697665006044820152606490fd5b3d15610821573d9067ffffffffffffffff82116106e85760405191610815601f8201601f1916602001846106c6565b82523d6000602084013e565b60609056fea2646970667358221220b14dd4d1f04bb45b03a1ec350ed9161f1b3cb591e59394e4d873608127cbdcd864736f6c63430008180033","opcodes":"PUSH1 0x80 CALLVALUE PUSH2 0x7C JUMPI PUSH1 0x1F PUSH2 0x8F4 CODESIZE DUP2 SWAP1 SUB SWAP2 DUP3 ADD PUSH1 0x1F NOT AND DUP4 ADD SWAP2 PUSH1 0x1 PUSH1 0x1 PUSH1 0x40 SHL SUB DUP4 GT DUP5 DUP5 LT OR PUSH2 0x81 JUMPI DUP1 DUP5 SWAP3 PUSH1 0x20 SWAP5 PUSH1 0x40 MSTORE DUP4 CODECOPY DUP2 ADD SUB SLT PUSH2 0x7C JUMPI MLOAD PUSH1 0x1 PUSH1 0x1 PUSH1 0xA0 SHL SUB DUP2 AND SWAP1 DUP2 SWAP1 SUB PUSH2 0x7C JUMPI PUSH1 0x1 DUP1 PUSH1 0xA0 SHL SUB NOT SWAP1 DUP2 PUSH1 0x0 SLOAD AND OR PUSH1 0x0 SSTORE CALLER SWAP1 PUSH1 0x1 SLOAD AND OR PUSH1 0x1 SSTORE PUSH1 0x40 MLOAD PUSH2 0x85C SWAP1 DUP2 PUSH2 0x98 DUP3 CODECOPY RETURN JUMPDEST PUSH1 0x0 DUP1 REVERT JUMPDEST PUSH4 0x4E487B71 PUSH1 0xE0 SHL PUSH1 0x0 MSTORE PUSH1 0x41 PUSH1 0x4 MSTORE PUSH1 0x24 PUSH1 0x0 REVERT INVALID PUSH1 0x80 PUSH1 0x40 DUP2 DUP2 MSTORE PUSH1 0x4 SWAP2 DUP3 CALLDATASIZE LT ISZERO PUSH2 0x22 JUMPI JUMPDEST POP POP POP CALLDATASIZE ISZERO PUSH2 0x20 JUMPI PUSH1 0x0 DUP1 REVERT JUMPDEST STOP JUMPDEST PUSH1 0x0 SWAP3 DUP4 CALLDATALOAD PUSH1 0xE0 SHR SWAP2 DUP3 PUSH4 0x1CB44DFC EQ PUSH2 0x641 JUMPI POP DUP2 PUSH4 0x211A4443 EQ PUSH2 0x615 JUMPI DUP2 PUSH4 0x3012B05C EQ PUSH2 0x4A8 JUMPI DUP2 PUSH4 0x415F1240 EQ PUSH2 0x2D4 JUMPI DUP2 PUSH4 0x7DC0D1D0 EQ PUSH2 0x2AC JUMPI DUP2 PUSH4 0x8DA5CB5B EQ PUSH2 0x283 JUMPI DUP2 PUSH4 0x99FBAB88 EQ PUSH2 0x218 JUMPI DUP2 PUSH4 0xA126D601 EQ PUSH2 0xB6 JUMPI POP PUSH4 0xE7702D05 EQ PUSH2 0x95 JUMPI DUP1 PUSH2 0x12 JUMP JUMPDEST CALLVALUE PUSH2 0xB2 JUMPI DUP2 PUSH1 0x3 NOT CALLDATASIZE ADD SLT PUSH2 0xB2 JUMPI PUSH1 0x20 SWAP1 PUSH1 0x3 SLOAD SWAP1 MLOAD SWAP1 DUP2 MSTORE RETURN JUMPDEST POP DUP1 REVERT JUMPDEST SWAP1 POP CALLVALUE PUSH2 0x214 JUMPI PUSH1 0x20 CALLDATASIZE PUSH1 0x3 NOT ADD SLT PUSH2 0x214 JUMPI DUP1 CALLDATALOAD DUP1 DUP5 MSTORE PUSH1 0x2 PUSH1 0x20 MSTORE DUP3 DUP5 KECCAK256 DUP1 SLOAD SWAP2 SWAP4 SWAP2 PUSH1 0x1 PUSH1 0x1 PUSH1 0xA0 SHL SUB AND CALLER SUB PUSH2 0x1D1 JUMPI DUP3 DUP2 ADD DUP1 SLOAD SWAP2 PUSH1 0xFF DUP4 AND ISZERO PUSH2 0x18E JUMPI DUP7 DUP1 SWAP4 DUP2 DUP1 SWAP5 PUSH1 0x1 DUP3 SWAP6 ADD SWAP1 DUP2 SLOAD SWAP4 PUSH1 0xFF NOT AND SWAP1 SSTORE SSTORE CALLER GAS CALL PUSH2 0x11A PUSH2 0x7E6 JUMP JUMPDEST POP ISZERO PUSH2 0x14B JUMPI POP POP CALLER SWAP1 PUSH32 0xCEFAF961C5013063CF501FFD9F9382E9B9C4B15741AD032FE93D7E9C7C733B22 DUP4 DUP1 LOG3 DUP1 RETURN JUMPDEST SWAP1 PUSH1 0x20 PUSH1 0x64 SWAP3 MLOAD SWAP2 PUSH3 0x461BCD PUSH1 0xE5 SHL DUP4 MSTORE DUP3 ADD MSTORE PUSH1 0x19 PUSH1 0x24 DUP3 ADD MSTORE PUSH32 0x4C697175696461746F723A20726566756E64206661696C656400000000000000 PUSH1 0x44 DUP3 ADD MSTORE REVERT JUMPDEST DUP4 MLOAD PUSH3 0x461BCD PUSH1 0xE5 SHL DUP2 MSTORE PUSH1 0x20 DUP2 DUP8 ADD MSTORE PUSH1 0x1A PUSH1 0x24 DUP3 ADD MSTORE PUSH32 0x4C697175696461746F723A20616C726561647920636C6F736564000000000000 PUSH1 0x44 DUP3 ADD MSTORE PUSH1 0x64 SWAP1 REVERT JUMPDEST DUP2 MLOAD PUSH3 0x461BCD PUSH1 0xE5 SHL DUP2 MSTORE PUSH1 0x20 DUP2 DUP6 ADD MSTORE PUSH1 0x1E PUSH1 0x24 DUP3 ADD MSTORE PUSH32 0x4C697175696461746F723A206E6F7420706F736974696F6E206F776E65720000 PUSH1 0x44 DUP3 ADD MSTORE PUSH1 0x64 SWAP1 REVERT JUMPDEST DUP3 DUP1 REVERT JUMPDEST SWAP2 SWAP1 POP CALLVALUE PUSH2 0x214 JUMPI PUSH1 0x20 CALLDATASIZE PUSH1 0x3 NOT ADD SLT PUSH2 0x214 JUMPI DUP1 PUSH1 0xC0 SWAP4 DUP4 CALLDATALOAD DUP2 MSTORE PUSH1 0x2 PUSH1 0x20 MSTORE KECCAK256 PUSH1 0x1 DUP1 PUSH1 0xA0 SHL SUB DUP2 SLOAD AND SWAP3 PUSH1 0x1 DUP3 ADD SLOAD SWAP3 PUSH1 0x2 DUP4 ADD SLOAD SWAP1 PUSH1 0x5 PUSH1 0xFF PUSH1 0x3 DUP7 ADD SLOAD SWAP5 DUP7 ADD SLOAD AND SWAP5 ADD SLOAD SWAP5 DUP2 MLOAD SWAP7 DUP8 MSTORE PUSH1 0x20 DUP8 ADD MSTORE DUP6 ADD MSTORE PUSH1 0x60 DUP5 ADD MSTORE ISZERO ISZERO PUSH1 0x80 DUP4 ADD MSTORE PUSH1 0xA0 DUP3 ADD MSTORE RETURN JUMPDEST POP POP CALLVALUE PUSH2 0xB2 JUMPI DUP2 PUSH1 0x3 NOT CALLDATASIZE ADD SLT PUSH2 0xB2 JUMPI PUSH1 0x1 SLOAD SWAP1 MLOAD PUSH1 0x1 PUSH1 0x1 PUSH1 0xA0 SHL SUB SWAP1 SWAP2 AND DUP2 MSTORE PUSH1 0x20 SWAP1 RETURN JUMPDEST POP POP CALLVALUE PUSH2 0xB2 JUMPI DUP2 PUSH1 0x3 NOT CALLDATASIZE ADD SLT PUSH2 0xB2 JUMPI SWAP1 SLOAD SWAP1 MLOAD PUSH1 0x1 PUSH1 0x1 PUSH1 0xA0 SHL SUB SWAP1 SWAP2 AND DUP2 MSTORE PUSH1 0x20 SWAP1 RETURN JUMPDEST SWAP2 SWAP1 POP CALLVALUE PUSH2 0x214 JUMPI PUSH1 0x20 DUP1 PUSH1 0x3 NOT CALLDATASIZE ADD SLT PUSH2 0x4A4 JUMPI DUP3 CALLDATALOAD SWAP2 PUSH2 0x2F5 DUP4 PUSH2 0x6FE JUMP JUMPDEST ISZERO PUSH2 0x463 JUMPI DUP3 DUP6 MSTORE PUSH1 0x2 DUP3 MSTORE DUP1 DUP6 KECCAK256 SWAP4 DUP6 PUSH1 0x1 DUP7 ADD DUP3 DUP2 SLOAD SWAP8 ADD PUSH1 0xFF NOT DUP2 SLOAD AND SWAP1 SSTORE SSTORE PUSH1 0x5 DUP6 MUL DUP6 DUP2 DIV PUSH1 0x5 EQ DUP7 ISZERO OR ISZERO PUSH2 0x450 JUMPI PUSH1 0x64 SWAP1 DIV DUP1 DUP7 SUB SWAP1 DUP7 DUP3 GT PUSH2 0x43D JUMPI DUP8 DUP1 DUP1 DUP1 SWAP4 CALLER GAS CALL PUSH2 0x349 PUSH2 0x7E6 JUMP JUMPDEST POP ISZERO PUSH2 0x3F0 JUMPI PUSH1 0x1 SLOAD DUP8 SWAP2 DUP3 SWAP2 DUP3 SWAP2 DUP3 SWAP2 PUSH1 0x1 PUSH1 0x1 PUSH1 0xA0 SHL SUB AND GAS CALL PUSH2 0x36D PUSH2 0x7E6 JUMP JUMPDEST POP ISZERO PUSH2 0x3A1 JUMPI POP SWAP1 PUSH32 0x26DC706C10B1F8A4BF68A2F50B9A025921938E72EE2AB65F50815438FBA4A88D SWAP2 MLOAD SWAP4 DUP5 MSTORE CALLER SWAP4 LOG3 DUP1 RETURN JUMPDEST DUP3 PUSH1 0x84 SWAP3 MLOAD SWAP2 PUSH3 0x461BCD PUSH1 0xE5 SHL DUP4 MSTORE DUP3 ADD MSTORE PUSH1 0x25 PUSH1 0x24 DUP3 ADD MSTORE PUSH32 0x4C697175696461746F723A2072656D61696E646572207472616E736665722066 PUSH1 0x44 DUP3 ADD MSTORE PUSH5 0x185A5B1959 PUSH1 0xDA SHL PUSH1 0x64 DUP3 ADD MSTORE REVERT JUMPDEST POP DUP3 PUSH1 0x84 SWAP3 MLOAD SWAP2 PUSH3 0x461BCD PUSH1 0xE5 SHL DUP4 MSTORE DUP3 ADD MSTORE PUSH1 0x22 PUSH1 0x24 DUP3 ADD MSTORE PUSH32 0x4C697175696461746F723A20726577617264207472616E73666572206661696C PUSH1 0x44 DUP3 ADD MSTORE PUSH2 0x1959 PUSH1 0xF2 SHL PUSH1 0x64 DUP3 ADD MSTORE REVERT JUMPDEST PUSH4 0x4E487B71 PUSH1 0xE0 SHL DUP9 MSTORE PUSH1 0x11 DUP4 MSTORE PUSH1 0x24 DUP9 REVERT JUMPDEST PUSH4 0x4E487B71 PUSH1 0xE0 SHL DUP8 MSTORE PUSH1 0x11 DUP3 MSTORE PUSH1 0x24 DUP8 REVERT JUMPDEST MLOAD PUSH3 0x461BCD PUSH1 0xE5 SHL DUP2 MSTORE SWAP3 DUP4 ADD MSTORE POP PUSH1 0x1C PUSH1 0x24 DUP3 ADD MSTORE PUSH32 0x4C697175696461746F723A206E6F74206C6971756964617461626C6500000000 PUSH1 0x44 DUP3 ADD MSTORE PUSH1 0x64 SWAP1 REVERT JUMPDEST DUP4 DUP1 REVERT JUMPDEST DUP4 DUP4 DUP1 PUSH1 0x3 NOT CALLDATASIZE ADD SLT PUSH2 0xB2 JUMPI CALLVALUE ISZERO PUSH2 0x5C7 JUMPI PUSH1 0x3 SLOAD PUSH1 0x0 NOT DUP2 EQ PUSH2 0x5B4 JUMPI PUSH1 0x1 ADD SWAP2 DUP3 PUSH1 0x3 SSTORE DUP2 MLOAD SWAP1 PUSH1 0xC0 DUP3 ADD DUP3 DUP2 LT PUSH8 0xFFFFFFFFFFFFFFFF DUP3 GT OR PUSH2 0x5A1 JUMPI SWAP1 PUSH1 0x20 SWAP6 PUSH1 0x5 SWAP3 DUP6 MSTORE CALLER DUP5 MSTORE DUP7 DUP5 ADD SWAP1 CALLVALUE DUP3 MSTORE DUP6 DUP6 ADD PUSH1 0x24 CALLDATALOAD DUP2 MSTORE PUSH1 0x60 DUP7 ADD SWAP1 DUP3 CALLDATALOAD DUP3 MSTORE PUSH1 0x80 DUP8 ADD SWAP4 PUSH1 0x1 DUP6 MSTORE DUP9 PUSH1 0xA0 DUP10 ADD SWAP7 TIMESTAMP DUP9 MSTORE DUP12 DUP2 MSTORE PUSH1 0x2 DUP14 MSTORE KECCAK256 SWAP8 PUSH1 0x1 DUP1 PUSH1 0xA0 SHL SUB SWAP1 MLOAD AND PUSH12 0xFFFFFFFFFFFFFFFFFFFFFFFF PUSH1 0xA0 SHL DUP10 SLOAD AND OR DUP9 SSTORE MLOAD PUSH1 0x1 DUP9 ADD SSTORE MLOAD PUSH1 0x2 DUP8 ADD SSTORE MLOAD PUSH1 0x3 DUP7 ADD SSTORE DUP5 ADD SWAP1 MLOAD ISZERO ISZERO PUSH1 0xFF DUP1 NOT DUP4 SLOAD AND SWAP2 AND OR SWAP1 SSTORE MLOAD SWAP2 ADD SSTORE DUP1 MLOAD CALLVALUE DUP2 MSTORE DUP3 PUSH32 0xEAA60B48F40915EEC9CAC9494DA9C20CD39A8DA2477334ECD0D97CAB6C2DE05B DUP6 CALLER SWAP4 LOG3 MLOAD SWAP1 DUP2 MSTORE RETURN JUMPDEST PUSH4 0x4E487B71 PUSH1 0xE0 SHL DUP3 MSTORE PUSH1 0x41 DUP7 MSTORE PUSH1 0x24 DUP3 REVERT JUMPDEST PUSH4 0x4E487B71 PUSH1 0xE0 SHL DUP4 MSTORE PUSH1 0x11 DUP5 MSTORE PUSH1 0x24 DUP4 REVERT JUMPDEST MLOAD PUSH3 0x461BCD PUSH1 0xE5 SHL DUP2 MSTORE PUSH1 0x20 DUP2 DUP5 ADD MSTORE PUSH1 0x23 PUSH1 0x24 DUP3 ADD MSTORE PUSH32 0x4C697175696461746F723A206D7573742070726F7669646520636F6C6C617465 PUSH1 0x44 DUP3 ADD MSTORE PUSH3 0x1C985B PUSH1 0xEA SHL PUSH1 0x64 DUP3 ADD MSTORE PUSH1 0x84 SWAP1 REVERT JUMPDEST DUP3 DUP5 CALLVALUE PUSH2 0x63E JUMPI PUSH1 0x20 CALLDATASIZE PUSH1 0x3 NOT ADD SLT PUSH2 0x63E JUMPI POP PUSH2 0x635 PUSH1 0x20 SWAP3 CALLDATALOAD PUSH2 0x6FE JUMP JUMPDEST SWAP1 MLOAD SWAP1 ISZERO ISZERO DUP2 MSTORE RETURN JUMPDEST DUP1 REVERT JUMPDEST DUP5 SWAP3 POP CALLVALUE PUSH2 0x214 JUMPI PUSH1 0x20 CALLDATASIZE PUSH1 0x3 NOT ADD SLT PUSH2 0x214 JUMPI DUP2 CALLDATALOAD PUSH1 0x1 PUSH1 0x1 PUSH1 0xA0 SHL SUB DUP2 DUP2 AND SWAP4 SWAP2 DUP5 SWAP1 SUB PUSH2 0x6C2 JUMPI PUSH1 0x1 SLOAD AND CALLER SUB PUSH2 0x689 JUMPI POP POP DUP2 SLOAD PUSH1 0x1 PUSH1 0x1 PUSH1 0xA0 SHL SUB NOT AND OR DUP2 SSTORE DUP1 RETURN JUMPDEST PUSH3 0x461BCD PUSH1 0xE5 SHL DUP3 MSTORE PUSH1 0x20 SWAP1 DUP3 ADD MSTORE PUSH1 0x15 PUSH1 0x24 DUP3 ADD MSTORE PUSH21 0x2634B8BAB4B230BA37B91D103737BA1037BBB732B9 PUSH1 0x59 SHL PUSH1 0x44 DUP3 ADD MSTORE PUSH1 0x64 SWAP1 REVERT JUMPDEST DUP5 DUP1 REVERT JUMPDEST SWAP1 PUSH1 0x1F DUP1 NOT SWAP2 ADD AND DUP2 ADD SWAP1 DUP2 LT PUSH8 0xFFFFFFFFFFFFFFFF DUP3 GT OR PUSH2 0x6E8 JUMPI PUSH1 0x40 MSTORE JUMP JUMPDEST PUSH4 0x4E487B71 PUSH1 0xE0 SHL PUSH1 0x0 MSTORE PUSH1 0x41 PUSH1 0x4 MSTORE PUSH1 0x24 PUSH1 0x0 REVERT JUMPDEST PUSH1 0x0 SWAP1 DUP2 MSTORE PUSH1 0x20 SWAP1 PUSH1 0x2 DUP3 MSTORE PUSH1 0x40 DUP2 KECCAK256 SWAP1 PUSH1 0xFF PUSH1 0x4 DUP4 ADD SLOAD AND ISZERO PUSH2 0x7A1 JUMPI PUSH1 0x1 DUP1 PUSH1 0xA0 SHL SUB DUP2 SLOAD AND SWAP1 DUP4 PUSH1 0x3 DUP5 ADD SLOAD PUSH1 0x24 PUSH1 0x40 MLOAD DUP1 SWAP6 DUP2 SWAP4 PUSH4 0x4388CBD PUSH1 0xE4 SHL DUP4 MSTORE PUSH1 0x4 DUP4 ADD MSTORE GAS STATICCALL SWAP4 DUP5 ISZERO PUSH2 0x794 JUMPI DUP2 SWAP5 PUSH2 0x760 JUMPI JUMPDEST POP POP POP PUSH1 0x2 ADD SLOAD GT SWAP1 JUMP JUMPDEST SWAP1 SWAP2 DUP1 SWAP4 SWAP5 POP DUP2 RETURNDATASIZE DUP4 GT PUSH2 0x78D JUMPI JUMPDEST PUSH2 0x779 DUP2 DUP4 PUSH2 0x6C6 JUMP JUMPDEST DUP2 ADD SUB SLT PUSH2 0x63E JUMPI POP MLOAD SWAP1 PUSH1 0x2 CODESIZE DUP1 PUSH2 0x755 JUMP JUMPDEST POP RETURNDATASIZE PUSH2 0x76F JUMP JUMPDEST POP PUSH1 0x40 MLOAD SWAP1 RETURNDATASIZE SWAP1 DUP3 RETURNDATACOPY RETURNDATASIZE SWAP1 REVERT JUMPDEST PUSH1 0x40 MLOAD PUSH3 0x461BCD PUSH1 0xE5 SHL DUP2 MSTORE PUSH1 0x4 DUP2 ADD DUP5 SWAP1 MSTORE PUSH1 0x1F PUSH1 0x24 DUP3 ADD MSTORE PUSH32 0x4C697175696461746F723A20706F736974696F6E206E6F742061637469766500 PUSH1 0x44 DUP3 ADD MSTORE PUSH1 0x64 SWAP1 REVERT JUMPDEST RETURNDATASIZE ISZERO PUSH2 0x821 JUMPI RETURNDATASIZE SWAP1 PUSH8 0xFFFFFFFFFFFFFFFF DUP3 GT PUSH2 0x6E8 JUMPI PUSH1 0x40 MLOAD SWAP2 PUSH2 0x815 PUSH1 0x1F DUP3 ADD PUSH1 0x1F NOT AND PUSH1 0x20 ADD DUP5 PUSH2 0x6C6 JUMP JUMPDEST DUP3 MSTORE RETURNDATASIZE PUSH1 0x0 PUSH1 0x20 DUP5 ADD RETURNDATACOPY JUMP JUMPDEST PUSH1 0x60 SWAP1 JUMP INVALID LOG2 PUSH5 0x6970667358 0x22 SLT KECCAK256 0xB1 0x4D 0xD4 0xD1 CREATE 0x4B 0xB4 JUMPDEST SUB LOG1 0xEC CALLDATALOAD 0xE 0xD9 AND 0x1F SHL EXTCODECOPY 0xB5 SWAP2 0xE5 SWAP4 SWAP5 0xE4 0xD8 PUSH20 0x608127CBDCD864736F6C63430008180033000000 "},"methodIdentifiers":{"closePosition(uint256)":"a126d601","isLiquidatable(uint256)":"211a4443","liquidate(uint256)":"415f1240","openPosition(uint256,uint256)":"3012b05c","oracle()":"7dc0d1d0","owner()":"8da5cb5b","positionCount()":"e7702d05","positions(uint256)":"99fbab88","updateOracle(address)":"1cb44dfc"}}}}}