{"contracts/MockConsumer.sol":{"MockConsumer":{"abi":[{"inputs":[{"internalType":"address","name":"_oracle","type":"address"}],"stateMutability":"nonpayable","type":"constructor"},{"anonymous":false,"inputs":[{"indexed":true,"internalType":"address","name":"position","type":"address"},{"indexed":false,"internalType":"uint256","name":"feedId","type":"uint256"}],"name":"LiquidationTriggered","type":"event"},{"anonymous":false,"inputs":[{"indexed":false,"internalType":"uint256","name":"feedId","type":"uint256"},{"indexed":false,"internalType":"string","name":"checkType","type":"string"}],"name":"PriceCheckPassed","type":"event"},{"inputs":[],"name":"BTC_USD_FEED","outputs":[{"internalType":"uint256","name":"","type":"uint256"}],"stateMutability":"view","type":"function"},{"inputs":[],"name":"ETH_USD_FEED","outputs":[{"internalType":"uint256","name":"","type":"uint256"}],"stateMutability":"view","type":"function"},{"inputs":[{"internalType":"address","name":"position","type":"address"},{"internalType":"uint256","name":"feedId","type":"uint256"},{"internalType":"uint256","name":"liquidationPrice","type":"uint256"}],"name":"checkLiquidation","outputs":[{"internalType":"bool","name":"shouldLiquidate","type":"bool"}],"stateMutability":"nonpayable","type":"function"},{"inputs":[{"internalType":"uint256","name":"feedId","type":"uint256"},{"internalType":"uint256","name":"threshold","type":"uint256"}],"name":"isPriceAbove","outputs":[{"internalType":"bool","name":"","type":"bool"}],"stateMutability":"view","type":"function"},{"inputs":[{"internalType":"uint256","name":"feedId","type":"uint256"},{"internalType":"uint256","name":"threshold","type":"uint256"}],"name":"isPriceBelow","outputs":[{"internalType":"bool","name":"","type":"bool"}],"stateMutability":"view","type":"function"},{"inputs":[{"internalType":"uint256","name":"feedId","type":"uint256"},{"internalType":"uint256","name":"lower","type":"uint256"},{"internalType":"uint256","name":"upper","type":"uint256"}],"name":"isWithinBand","outputs":[{"internalType":"bool","name":"","type":"bool"}],"stateMutability":"view","type":"function"},{"inputs":[],"name":"oracle","outputs":[{"internalType":"contract IFHEOracleBridge","name":"","type":"address"}],"stateMutability":"view","type":"function"},{"inputs":[],"name":"owner","outputs":[{"internalType":"address","name":"","type":"address"}],"stateMutability":"view","type":"function"},{"inputs":[{"internalType":"address","name":"newOracle","type":"address"}],"name":"updateOracle","outputs":[],"stateMutability":"nonpayable","type":"function"}],"evm":{"bytecode":{"linkReferences":{},"object":"60803461007c57601f61059238819003918201601f19168301916001600160401b038311848410176100815780849260209460405283398101031261007c57516001600160a01b0381169081900361007c5760018060a01b031990816000541617600055339060015416176001556040516104fa90816100988239f35b600080fd5b634e487b7160e01b600052604160045260246000fdfe608060408181526004908136101561001657600080fd5b600092833560e01c9081631cb44dfc146103da5750806330c2ca761461034e5780637dc0d1d0146103265780637e8bf08e1461030a5780638da5cb5b146102e1578063938e0c911461024557806394d8572a14610225578063a528d4e01461013e5763cf8910d21461008757600080fd5b3461012857606036600319011261012857825481516304388cbd60e41b8152833593810193909352602090839060249082906001600160a01b03165afa9182156101345783926100f8575b5060209250602435821191826100ec575b50519015158152f35b604435119150386100e3565b9091506020813d60201161012c575b816101146020938361048c565b8101031261012857602092505190386100d2565b8280fd5b3d9150610107565b81513d85823e3d90fd5b50346101285760603660031901126101285761015861045b565b835482516304388cbd60e41b8152602480359582018690526020966001600160a01b03969493909291889183919082908a165afa91821561021a57908188936101e6575b50506044351194856101b3575b5050505051908152f35b7f518c4e18971712e9ead4b0494dcf1bfc39d789cf7622ddfc960c7d62661512da9285519485521692a2388084816101a9565b91509182813d8311610213575b6101fd818361048c565b810103126102105750859051388061019c565b80fd5b503d6101f3565b8551903d90823e3d90fd5b8382346102415781600319360112610241576020905160018152f35b5080fd5b5090346101285760209161025836610476565b855483516304388cbd60e41b8152948501929092529390839060249082906001600160a01b03165afa9182156102d757849261029b575b50602093505191118152f35b9091506020813d6020116102cf575b816102b76020938361048c565b810103126102cb576020935051903861028f565b8380fd5b3d91506102aa565b81513d86823e3d90fd5b83823461024157816003193601126102415760015490516001600160a01b039091168152602090f35b8382346102415781600319360112610241576020905160028152f35b838234610241578160031936011261024157905490516001600160a01b039091168152602090f35b50346101285760209061036036610476565b855483516304388cbd60e41b8152958601929092529290849060249082906001600160a01b03165afa9283156102d75784936103a25750602093505191118152f35b9092506020813d6020116103d2575b816103be6020938361048c565b810103126102cb576020935051913861028f565b3d91506103b1565b91505034610128576020366003190112610128576103f661045b565b6001546001600160a01b0393919291908416330361042457505082546001600160a01b031916911617815580f35b62461bcd60e51b8252602090820152601360248201527221b7b739bab6b2b91d103737ba1037bbb732b960691b6044820152606490fd5b600435906001600160a01b038216820361047157565b600080fd5b6040906003190112610471576004359060243590565b90601f8019910116810190811067ffffffffffffffff8211176104ae57604052565b634e487b7160e01b600052604160045260246000fdfea2646970667358221220333367500c37fa48316b219dab32e781ed807c8cf82338328f7e7e489485df6a64736f6c63430008180033","opcodes":"PUSH1 0x80 CALLVALUE PUSH2 0x7C JUMPI PUSH1 0x1F PUSH2 0x592 CODESIZE DUP2 SWAP1 SUB SWAP2 DUP3 ADD PUSH1 0x1F NOT AND DUP4 ADD SWAP2 PUSH1 0x1 PUSH1 0x1 PUSH1 0x40 SHL SUB DUP4 GT DUP5 DUP5 LT OR PUSH2 0x81 JUMPI DUP1 DUP5 SWAP3 PUSH1 0x20 SWAP5 PUSH1 0x40 MSTORE DUP4 CODECOPY DUP2 ADD SUB SLT PUSH2 0x7C JUMPI MLOAD PUSH1 0x1 PUSH1 0x1 PUSH1 0xA0 SHL SUB DUP2 AND SWAP1 DUP2 SWAP1 SUB PUSH2 0x7C JUMPI PUSH1 0x1 DUP1 PUSH1 0xA0 SHL SUB NOT SWAP1 DUP2 PUSH1 0x0 SLOAD AND OR PUSH1 0x0 SSTORE CALLER SWAP1 PUSH1 0x1 SLOAD AND OR PUSH1 0x1 SSTORE PUSH1 0x40 MLOAD PUSH2 0x4FA SWAP1 DUP2 PUSH2 0x98 DUP3 CODECOPY RETURN JUMPDEST PUSH1 0x0 DUP1 REVERT JUMPDEST PUSH4 0x4E487B71 PUSH1 0xE0 SHL PUSH1 0x0 MSTORE PUSH1 0x41 PUSH1 0x4 MSTORE PUSH1 0x24 PUSH1 0x0 REVERT INVALID PUSH1 0x80 PUSH1 0x40 DUP2 DUP2 MSTORE PUSH1 0x4 SWAP1 DUP2 CALLDATASIZE LT ISZERO PUSH2 0x16 JUMPI PUSH1 0x0 DUP1 REVERT JUMPDEST PUSH1 0x0 SWAP3 DUP4 CALLDATALOAD PUSH1 0xE0 SHR SWAP1 DUP2 PUSH4 0x1CB44DFC EQ PUSH2 0x3DA JUMPI POP DUP1 PUSH4 0x30C2CA76 EQ PUSH2 0x34E JUMPI DUP1 PUSH4 0x7DC0D1D0 EQ PUSH2 0x326 JUMPI DUP1 PUSH4 0x7E8BF08E EQ PUSH2 0x30A JUMPI DUP1 PUSH4 0x8DA5CB5B EQ PUSH2 0x2E1 JUMPI DUP1 PUSH4 0x938E0C91 EQ PUSH2 0x245 JUMPI DUP1 PUSH4 0x94D8572A EQ PUSH2 0x225 JUMPI DUP1 PUSH4 0xA528D4E0 EQ PUSH2 0x13E JUMPI PUSH4 0xCF8910D2 EQ PUSH2 0x87 JUMPI PUSH1 0x0 DUP1 REVERT JUMPDEST CALLVALUE PUSH2 0x128 JUMPI PUSH1 0x60 CALLDATASIZE PUSH1 0x3 NOT ADD SLT PUSH2 0x128 JUMPI DUP3 SLOAD DUP2 MLOAD PUSH4 0x4388CBD PUSH1 0xE4 SHL DUP2 MSTORE DUP4 CALLDATALOAD SWAP4 DUP2 ADD SWAP4 SWAP1 SWAP4 MSTORE PUSH1 0x20 SWAP1 DUP4 SWAP1 PUSH1 0x24 SWAP1 DUP3 SWAP1 PUSH1 0x1 PUSH1 0x1 PUSH1 0xA0 SHL SUB AND GAS STATICCALL SWAP2 DUP3 ISZERO PUSH2 0x134 JUMPI DUP4 SWAP3 PUSH2 0xF8 JUMPI JUMPDEST POP PUSH1 0x20 SWAP3 POP PUSH1 0x24 CALLDATALOAD DUP3 GT SWAP2 DUP3 PUSH2 0xEC JUMPI JUMPDEST POP MLOAD SWAP1 ISZERO ISZERO DUP2 MSTORE RETURN JUMPDEST PUSH1 0x44 CALLDATALOAD GT SWAP2 POP CODESIZE PUSH2 0xE3 JUMP JUMPDEST SWAP1 SWAP2 POP PUSH1 0x20 DUP2 RETURNDATASIZE PUSH1 0x20 GT PUSH2 0x12C JUMPI JUMPDEST DUP2 PUSH2 0x114 PUSH1 0x20 SWAP4 DUP4 PUSH2 0x48C JUMP JUMPDEST DUP2 ADD SUB SLT PUSH2 0x128 JUMPI PUSH1 0x20 SWAP3 POP MLOAD SWAP1 CODESIZE PUSH2 0xD2 JUMP JUMPDEST DUP3 DUP1 REVERT JUMPDEST RETURNDATASIZE SWAP2 POP PUSH2 0x107 JUMP JUMPDEST DUP2 MLOAD RETURNDATASIZE DUP6 DUP3 RETURNDATACOPY RETURNDATASIZE SWAP1 REVERT JUMPDEST POP CALLVALUE PUSH2 0x128 JUMPI PUSH1 0x60 CALLDATASIZE PUSH1 0x3 NOT ADD SLT PUSH2 0x128 JUMPI PUSH2 0x158 PUSH2 0x45B JUMP JUMPDEST DUP4 SLOAD DUP3 MLOAD PUSH4 0x4388CBD PUSH1 0xE4 SHL DUP2 MSTORE PUSH1 0x24 DUP1 CALLDATALOAD SWAP6 DUP3 ADD DUP7 SWAP1 MSTORE PUSH1 0x20 SWAP7 PUSH1 0x1 PUSH1 0x1 PUSH1 0xA0 SHL SUB SWAP7 SWAP5 SWAP4 SWAP1 SWAP3 SWAP2 DUP9 SWAP2 DUP4 SWAP2 SWAP1 DUP3 SWAP1 DUP11 AND GAS STATICCALL SWAP2 DUP3 ISZERO PUSH2 0x21A JUMPI SWAP1 DUP2 DUP9 SWAP4 PUSH2 0x1E6 JUMPI JUMPDEST POP POP PUSH1 0x44 CALLDATALOAD GT SWAP5 DUP6 PUSH2 0x1B3 JUMPI JUMPDEST POP POP POP POP MLOAD SWAP1 DUP2 MSTORE RETURN JUMPDEST PUSH32 0x518C4E18971712E9EAD4B0494DCF1BFC39D789CF7622DDFC960C7D62661512DA SWAP3 DUP6 MLOAD SWAP5 DUP6 MSTORE AND SWAP3 LOG2 CODESIZE DUP1 DUP5 DUP2 PUSH2 0x1A9 JUMP JUMPDEST SWAP2 POP SWAP2 DUP3 DUP2 RETURNDATASIZE DUP4 GT PUSH2 0x213 JUMPI JUMPDEST PUSH2 0x1FD DUP2 DUP4 PUSH2 0x48C JUMP JUMPDEST DUP2 ADD SUB SLT PUSH2 0x210 JUMPI POP DUP6 SWAP1 MLOAD CODESIZE DUP1 PUSH2 0x19C JUMP JUMPDEST DUP1 REVERT JUMPDEST POP RETURNDATASIZE PUSH2 0x1F3 JUMP JUMPDEST DUP6 MLOAD SWAP1 RETURNDATASIZE SWAP1 DUP3 RETURNDATACOPY RETURNDATASIZE SWAP1 REVERT JUMPDEST DUP4 DUP3 CALLVALUE PUSH2 0x241 JUMPI DUP2 PUSH1 0x3 NOT CALLDATASIZE ADD SLT PUSH2 0x241 JUMPI PUSH1 0x20 SWAP1 MLOAD PUSH1 0x1 DUP2 MSTORE RETURN JUMPDEST POP DUP1 REVERT JUMPDEST POP SWAP1 CALLVALUE PUSH2 0x128 JUMPI PUSH1 0x20 SWAP2 PUSH2 0x258 CALLDATASIZE PUSH2 0x476 JUMP JUMPDEST DUP6 SLOAD DUP4 MLOAD PUSH4 0x4388CBD PUSH1 0xE4 SHL DUP2 MSTORE SWAP5 DUP6 ADD SWAP3 SWAP1 SWAP3 MSTORE SWAP4 SWAP1 DUP4 SWAP1 PUSH1 0x24 SWAP1 DUP3 SWAP1 PUSH1 0x1 PUSH1 0x1 PUSH1 0xA0 SHL SUB AND GAS STATICCALL SWAP2 DUP3 ISZERO PUSH2 0x2D7 JUMPI DUP5 SWAP3 PUSH2 0x29B JUMPI JUMPDEST POP PUSH1 0x20 SWAP4 POP MLOAD SWAP2 GT DUP2 MSTORE RETURN JUMPDEST SWAP1 SWAP2 POP PUSH1 0x20 DUP2 RETURNDATASIZE PUSH1 0x20 GT PUSH2 0x2CF JUMPI JUMPDEST DUP2 PUSH2 0x2B7 PUSH1 0x20 SWAP4 DUP4 PUSH2 0x48C JUMP JUMPDEST DUP2 ADD SUB SLT PUSH2 0x2CB JUMPI PUSH1 0x20 SWAP4 POP MLOAD SWAP1 CODESIZE PUSH2 0x28F JUMP JUMPDEST DUP4 DUP1 REVERT JUMPDEST RETURNDATASIZE SWAP2 POP PUSH2 0x2AA JUMP JUMPDEST DUP2 MLOAD RETURNDATASIZE DUP7 DUP3 RETURNDATACOPY RETURNDATASIZE SWAP1 REVERT JUMPDEST DUP4 DUP3 CALLVALUE PUSH2 0x241 JUMPI DUP2 PUSH1 0x3 NOT CALLDATASIZE ADD SLT PUSH2 0x241 JUMPI PUSH1 0x1 SLOAD SWAP1 MLOAD PUSH1 0x1 PUSH1 0x1 PUSH1 0xA0 SHL SUB SWAP1 SWAP2 AND DUP2 MSTORE PUSH1 0x20 SWAP1 RETURN JUMPDEST DUP4 DUP3 CALLVALUE PUSH2 0x241 JUMPI DUP2 PUSH1 0x3 NOT CALLDATASIZE ADD SLT PUSH2 0x241 JUMPI PUSH1 0x20 SWAP1 MLOAD PUSH1 0x2 DUP2 MSTORE RETURN JUMPDEST DUP4 DUP3 CALLVALUE PUSH2 0x241 JUMPI DUP2 PUSH1 0x3 NOT CALLDATASIZE ADD SLT PUSH2 0x241 JUMPI SWAP1 SLOAD SWAP1 MLOAD PUSH1 0x1 PUSH1 0x1 PUSH1 0xA0 SHL SUB SWAP1 SWAP2 AND DUP2 MSTORE PUSH1 0x20 SWAP1 RETURN JUMPDEST POP CALLVALUE PUSH2 0x128 JUMPI PUSH1 0x20 SWAP1 PUSH2 0x360 CALLDATASIZE PUSH2 0x476 JUMP JUMPDEST DUP6 SLOAD DUP4 MLOAD PUSH4 0x4388CBD PUSH1 0xE4 SHL DUP2 MSTORE SWAP6 DUP7 ADD SWAP3 SWAP1 SWAP3 MSTORE SWAP3 SWAP1 DUP5 SWAP1 PUSH1 0x24 SWAP1 DUP3 SWAP1 PUSH1 0x1 PUSH1 0x1 PUSH1 0xA0 SHL SUB AND GAS STATICCALL SWAP3 DUP4 ISZERO PUSH2 0x2D7 JUMPI DUP5 SWAP4 PUSH2 0x3A2 JUMPI POP PUSH1 0x20 SWAP4 POP MLOAD SWAP2 GT DUP2 MSTORE RETURN JUMPDEST SWAP1 SWAP3 POP PUSH1 0x20 DUP2 RETURNDATASIZE PUSH1 0x20 GT PUSH2 0x3D2 JUMPI JUMPDEST DUP2 PUSH2 0x3BE PUSH1 0x20 SWAP4 DUP4 PUSH2 0x48C JUMP JUMPDEST DUP2 ADD SUB SLT PUSH2 0x2CB JUMPI PUSH1 0x20 SWAP4 POP MLOAD SWAP2 CODESIZE PUSH2 0x28F JUMP JUMPDEST RETURNDATASIZE SWAP2 POP PUSH2 0x3B1 JUMP JUMPDEST SWAP2 POP POP CALLVALUE PUSH2 0x128 JUMPI PUSH1 0x20 CALLDATASIZE PUSH1 0x3 NOT ADD SLT PUSH2 0x128 JUMPI PUSH2 0x3F6 PUSH2 0x45B JUMP JUMPDEST PUSH1 0x1 SLOAD PUSH1 0x1 PUSH1 0x1 PUSH1 0xA0 SHL SUB SWAP4 SWAP2 SWAP3 SWAP2 SWAP1 DUP5 AND CALLER SUB PUSH2 0x424 JUMPI POP POP DUP3 SLOAD PUSH1 0x1 PUSH1 0x1 PUSH1 0xA0 SHL SUB NOT AND SWAP2 AND OR DUP2 SSTORE DUP1 RETURN JUMPDEST PUSH3 0x461BCD PUSH1 0xE5 SHL DUP3 MSTORE PUSH1 0x20 SWAP1 DUP3 ADD MSTORE PUSH1 0x13 PUSH1 0x24 DUP3 ADD MSTORE PUSH19 0x21B7B739BAB6B2B91D103737BA1037BBB732B9 PUSH1 0x69 SHL PUSH1 0x44 DUP3 ADD MSTORE PUSH1 0x64 SWAP1 REVERT JUMPDEST PUSH1 0x4 CALLDATALOAD SWAP1 PUSH1 0x1 PUSH1 0x1 PUSH1 0xA0 SHL SUB DUP3 AND DUP3 SUB PUSH2 0x471 JUMPI JUMP JUMPDEST PUSH1 0x0 DUP1 REVERT JUMPDEST PUSH1 0x40 SWAP1 PUSH1 0x3 NOT ADD SLT PUSH2 0x471 JUMPI PUSH1 0x4 CALLDATALOAD SWAP1 PUSH1 0x24 CALLDATALOAD SWAP1 JUMP JUMPDEST SWAP1 PUSH1 0x1F DUP1 NOT SWAP2 ADD AND DUP2 ADD SWAP1 DUP2 LT PUSH8 0xFFFFFFFFFFFFFFFF DUP3 GT OR PUSH2 0x4AE JUMPI PUSH1 0x40 MSTORE JUMP JUMPDEST PUSH4 0x4E487B71 PUSH1 0xE0 SHL PUSH1 0x0 MSTORE PUSH1 0x41 PUSH1 0x4 MSTORE PUSH1 0x24 PUSH1 0x0 REVERT INVALID LOG2 PUSH5 0x6970667358 0x22 SLT KECCAK256 CALLER CALLER PUSH8 0x500C37FA48316B21 SWAP14 0xAB ORIGIN 0xE7 DUP2 0xED DUP1 PUSH29 0x8CF82338328F7E7E489485DF6A64736F6C634300081800330000000000 "},"methodIdentifiers":{"BTC_USD_FEED()":"7e8bf08e","ETH_USD_FEED()":"94d8572a","checkLiquidation(address,uint256,uint256)":"a528d4e0","isPriceAbove(uint256,uint256)":"30c2ca76","isPriceBelow(uint256,uint256)":"938e0c91","isWithinBand(uint256,uint256,uint256)":"cf8910d2","oracle()":"7dc0d1d0","owner()":"8da5cb5b","updateOracle(address)":"1cb44dfc"}}}}}