{
  "_format": "hh-sol-artifact-1",
  "contractName": "FHEOracleBridge",
  "sourceName": "contracts/FHEOracleBridge.sol",
  "abi": [
    {
      "inputs": [
        {
          "internalType": "address",
          "name": "_registry",
          "type": "address"
        }
      ],
      "stateMutability": "nonpayable",
      "type": "constructor"
    },
    {
      "anonymous": false,
      "inputs": [
        {
          "indexed": true,
          "internalType": "uint256",
          "name": "feedId",
          "type": "uint256"
        },
        {
          "indexed": false,
          "internalType": "string",
          "name": "description",
          "type": "string"
        }
      ],
      "name": "FeedCreated",
      "type": "event"
    },
    {
      "anonymous": false,
      "inputs": [
        {
          "indexed": true,
          "internalType": "uint256",
          "name": "feedId",
          "type": "uint256"
        },
        {
          "indexed": false,
          "internalType": "uint256",
          "name": "roundId",
          "type": "uint256"
        },
        {
          "indexed": false,
          "internalType": "uint256",
          "name": "feederCount",
          "type": "uint256"
        }
      ],
      "name": "FeedUpdated",
      "type": "event"
    },
    {
      "anonymous": false,
      "inputs": [
        {
          "indexed": true,
          "internalType": "address",
          "name": "feeder",
          "type": "address"
        }
      ],
      "name": "FeederAdded",
      "type": "event"
    },
    {
      "anonymous": false,
      "inputs": [
        {
          "indexed": true,
          "internalType": "address",
          "name": "feeder",
          "type": "address"
        }
      ],
      "name": "FeederRemoved",
      "type": "event"
    },
    {
      "anonymous": false,
      "inputs": [
        {
          "indexed": true,
          "internalType": "address",
          "name": "feeder",
          "type": "address"
        },
        {
          "indexed": false,
          "internalType": "uint256",
          "name": "amount",
          "type": "uint256"
        }
      ],
      "name": "FeederSlashed",
      "type": "event"
    },
    {
      "anonymous": false,
      "inputs": [
        {
          "indexed": true,
          "internalType": "uint256",
          "name": "feedId",
          "type": "uint256"
        },
        {
          "indexed": true,
          "internalType": "address",
          "name": "feeder",
          "type": "address"
        },
        {
          "indexed": false,
          "internalType": "uint256",
          "name": "roundId",
          "type": "uint256"
        }
      ],
      "name": "PriceSubmitted",
      "type": "event"
    },
    {
      "inputs": [],
      "name": "DEFAULT_TTL",
      "outputs": [
        {
          "internalType": "uint256",
          "name": "",
          "type": "uint256"
        }
      ],
      "stateMutability": "view",
      "type": "function"
    },
    {
      "inputs": [],
      "name": "MIN_STAKE",
      "outputs": [
        {
          "internalType": "uint256",
          "name": "",
          "type": "uint256"
        }
      ],
      "stateMutability": "view",
      "type": "function"
    },
    {
      "inputs": [
        {
          "internalType": "address",
          "name": "feeder",
          "type": "address"
        }
      ],
      "name": "addFeeder",
      "outputs": [],
      "stateMutability": "nonpayable",
      "type": "function"
    },
    {
      "inputs": [
        {
          "internalType": "string",
          "name": "description",
          "type": "string"
        },
        {
          "internalType": "uint256",
          "name": "ttl",
          "type": "uint256"
        },
        {
          "internalType": "uint8",
          "name": "minFeeders",
          "type": "uint8"
        }
      ],
      "name": "createFeed",
      "outputs": [
        {
          "internalType": "uint256",
          "name": "feedId",
          "type": "uint256"
        }
      ],
      "stateMutability": "nonpayable",
      "type": "function"
    },
    {
      "inputs": [],
      "name": "feedCount",
      "outputs": [
        {
          "internalType": "uint256",
          "name": "",
          "type": "uint256"
        }
      ],
      "stateMutability": "view",
      "type": "function"
    },
    {
      "inputs": [
        {
          "internalType": "address",
          "name": "",
          "type": "address"
        }
      ],
      "name": "feederStake",
      "outputs": [
        {
          "internalType": "uint256",
          "name": "",
          "type": "uint256"
        }
      ],
      "stateMutability": "view",
      "type": "function"
    },
    {
      "inputs": [
        {
          "internalType": "address",
          "name": "",
          "type": "address"
        }
      ],
      "name": "feeders",
      "outputs": [
        {
          "internalType": "bool",
          "name": "",
          "type": "bool"
        }
      ],
      "stateMutability": "view",
      "type": "function"
    },
    {
      "inputs": [
        {
          "internalType": "uint256",
          "name": "feedId",
          "type": "uint256"
        }
      ],
      "name": "getEncryptedPrice",
      "outputs": [
        {
          "internalType": "euint256",
          "name": "",
          "type": "uint256"
        }
      ],
      "stateMutability": "view",
      "type": "function"
    },
    {
      "inputs": [
        {
          "internalType": "uint256",
          "name": "feedId",
          "type": "uint256"
        }
      ],
      "name": "getFeedInfo",
      "outputs": [
        {
          "internalType": "string",
          "name": "description",
          "type": "string"
        },
        {
          "internalType": "uint256",
          "name": "lastUpdated",
          "type": "uint256"
        },
        {
          "internalType": "uint256",
          "name": "roundId",
          "type": "uint256"
        },
        {
          "internalType": "uint256",
          "name": "ttl",
          "type": "uint256"
        },
        {
          "internalType": "uint8",
          "name": "minFeeders",
          "type": "uint8"
        },
        {
          "internalType": "bool",
          "name": "active",
          "type": "bool"
        },
        {
          "internalType": "bool",
          "name": "isStale",
          "type": "bool"
        }
      ],
      "stateMutability": "view",
      "type": "function"
    },
    {
      "inputs": [],
      "name": "owner",
      "outputs": [
        {
          "internalType": "address",
          "name": "",
          "type": "address"
        }
      ],
      "stateMutability": "view",
      "type": "function"
    },
    {
      "inputs": [
        {
          "internalType": "uint256",
          "name": "feedId",
          "type": "uint256"
        }
      ],
      "name": "pauseFeed",
      "outputs": [],
      "stateMutability": "nonpayable",
      "type": "function"
    },
    {
      "inputs": [
        {
          "internalType": "uint256",
          "name": "feedId",
          "type": "uint256"
        }
      ],
      "name": "pendingSubmissions",
      "outputs": [
        {
          "internalType": "uint256",
          "name": "",
          "type": "uint256"
        }
      ],
      "stateMutability": "view",
      "type": "function"
    },
    {
      "inputs": [],
      "name": "registry",
      "outputs": [
        {
          "internalType": "contract AccessRegistry",
          "name": "",
          "type": "address"
        }
      ],
      "stateMutability": "view",
      "type": "function"
    },
    {
      "inputs": [
        {
          "internalType": "address",
          "name": "feeder",
          "type": "address"
        }
      ],
      "name": "removeFeeder",
      "outputs": [],
      "stateMutability": "nonpayable",
      "type": "function"
    },
    {
      "inputs": [
        {
          "internalType": "uint256",
          "name": "feedId",
          "type": "uint256"
        }
      ],
      "name": "resumeFeed",
      "outputs": [],
      "stateMutability": "nonpayable",
      "type": "function"
    },
    {
      "inputs": [
        {
          "internalType": "address",
          "name": "feeder",
          "type": "address"
        },
        {
          "internalType": "uint256",
          "name": "amount",
          "type": "uint256"
        }
      ],
      "name": "slash",
      "outputs": [],
      "stateMutability": "nonpayable",
      "type": "function"
    },
    {
      "inputs": [],
      "name": "stake",
      "outputs": [],
      "stateMutability": "payable",
      "type": "function"
    },
    {
      "inputs": [
        {
          "internalType": "uint256",
          "name": "feedId",
          "type": "uint256"
        },
        {
          "internalType": "uint256",
          "name": "encPrice",
          "type": "uint256"
        }
      ],
      "name": "submitPrice",
      "outputs": [],
      "stateMutability": "nonpayable",
      "type": "function"
    },
    {
      "inputs": [
        {
          "internalType": "address",
          "name": "newOwner",
          "type": "address"
        }
      ],
      "name": "transferOwnership",
      "outputs": [],
      "stateMutability": "nonpayable",
      "type": "function"
    },
    {
      "stateMutability": "payable",
      "type": "receive"
    }
  ],
  "bytecode": "0x60a03461008557601f61154938819003918201601f19168301916001600160401b0383118484101761008a5780849260209460405283398101031261008557516001600160a01b0381169081900361008557600080546001600160a01b031916331790556080526040516114a890816100a182396080518181816107140152610b050152f35b600080fd5b634e487b7160e01b600052604160045260246000fdfe6080604052600436101561001b575b361561001957600080fd5b005b60003560e01c806302fb4d851461104e5780630aa316611461100f578063155fb6ae14610f9b57806316b4ecaf14610f455780632392258814610efd578063364c807314610d775780633a4b66f114610cb15780634388cbd014610ad35780634628986d14610ab55780634edf698a1461077d5780636df66840146107435780637b103999146106fe5780638da5cb5b146106d55780638e1207dc1461066457806391937b5114610620578063b3b548eb146101bc578063cb1c2b5c1461019a578063ef62821a1461017d5763f2fde38b0361000e57346101785760203660031901126101785761010a611163565b600054906001600160a01b03906101243383851614611179565b1690811561013c576001600160a01b03191617600055005b60405162461bcd60e51b81526020600482015260146024820152734f7261636c653a207a65726f206164647265737360601b6044820152606490fd5b600080fd5b34610178576000366003190112610178576020604051610e108152f35b34610178576000366003190112610178576020604051662386f26fc100008152f35b346101785760403660031901126101785760043560243360005260206002815260ff60406000205416156105de573360005260039060038152662386f26fc100006040600020541061059b578315158061058f575b61021a9061123e565b83600052600180825261023a60ff60046040600020015460081c1661128a565b8460005280825260406000209360028501549482860180961161057a5786600052600594600585526040600020876000528552604060002033600052855260ff84604060002001541661052b576040516040810181811067ffffffffffffffff821117610516576040528335815284868201918183528a6000526005885260406000208a60005288526040600020336000528852604060002090518155019051151560ff801983541691161790558760005260048552604060002087600052855260406000208054906801000000000000000082101561051657906103239186820181556112cc565b929080549360031b60018060a01b03948533831b921b1916179055604051888152897f2655941ef0e01e05d55a873609115593db7df65cd101451b9f7e89ede1613ec9883393a38860005260048652604060002088600052865260ff600460406000205492015416111561039357005b8760005260048552604060002087600052855260406000209081549685881460001461045157505087600052600585526040600020876000528552604060002092861561043d5750604095938795937f69748882305e8dcad98eaf84a01a297e5f37d0b390f0992d9d973c3458d7307c989360029360005285600020541660005284528660002054905b8960005280855287600020918255429082015501558351928352820152a2005b634e487b7160e01b60009081526032600452fd5b929093506104638796959998976112fa565b9361047160405195866111c6565b868552601f19610480886112fa565b01368787013760005b8781106104cf575050505050908360027f69748882305e8dcad98eaf84a01a297e5f37d0b390f0992d9d973c3458d7307c96976104c96040979695611343565b9061041d565b8a908a60005285885260406000208a60005288526040600020846104f383886112cc565b905490861b1c16600052885260406000205461050f8289611312565b5201610489565b84634e487b7160e01b60005260416004526000fd5b608485846040519162461bcd60e51b83526004830152808201527f4f7261636c653a20616c7265616479207375626d6974746564207468697320726044820152631bdd5b9960e21b6064820152fd5b50634e487b7160e01b60009081526011600452fd5b50600654841115610211565b606490601a846040519262461bcd60e51b845260048401528201527f4f7261636c653a20696e73756666696369656e74207374616b650000000000006044820152fd5b601d6064926040519262461bcd60e51b845260048401528201527f4f7261636c653a206e6f7420617574686f7269736564206665656465720000006044820152fd5b346101785760203660031901126101785761064660018060a01b03600054163314611179565b60048035600090815260016020526040902001805461ff0019169055005b346101785760203660031901126101785761067d611163565b6000546001600160a01b0391906106979083163314611179565b16806000526002602052604060002060ff1981541690557fb0bc40f69e0e5f4bb32517529a6b4eb76c452372c18fe559934d27a4a8f88dce600080a2005b34610178576000366003190112610178576000546040516001600160a01b039091168152602090f35b34610178576000366003190112610178576040517f00000000000000000000000000000000000000000000000000000000000000006001600160a01b03168152602090f35b34610178576020366003190112610178576001600160a01b03610764611163565b1660005260036020526020604060002054604051908152f35b346101785760603660031901126101785760043567ffffffffffffffff811161017857366023820112156101785767ffffffffffffffff81600401351161017857366024826004013583010111610178576024356044359160ff831692838103610178576107f660018060a01b03600054163314611179565b600654926000198414610a9f576001840160065580610a995750610e10935b610a9357506001925b6040519360e085019185831067ffffffffffffffff841117610a7d5760ff926040526000865260006020870152600060408701526060860152166080840152600160a084015261087181600401356111e8565b61087e60405191826111c6565b60048201358082526024830160208301376000602083600401358301015260c084015260018201600052600160205260c060056040600020855181556020860151600182015560408601516002820155606086015160038201556004810160ff60808801511681549061ff0060a08a0151151560081b169161ffff1916171790550193015192835167ffffffffffffffff8111610a7d5761091f8254611204565b601f8111610a35575b50806020958690601f83116001146109d1576000926109c6575b50508160011b916000199060031b1c19161790555b7f841244a86f2683ea34387dec2a93c35400fa46ff6e21b91ecd2095147bf8d2406040518481528260040135858201528260040135602484016040830137600060408460040135830101526040816001860194601f8019916004013501168101030190a2600160405191018152f35b015190508680610942565b60008581528881209350601f198516905b818110610a1e5750908460019594939210610a05575b505050811b019055610957565b015160001960f88460031b161c191690558680806109f8565b9293896001819287860151815501950193016109e2565b826000526020600020601f830160051c81019160208410610a73575b601f0160051c01905b818110610a675750610928565b60008155600101610a5a565b9091508190610a51565b634e487b7160e01b600052604160045260246000fd5b9261081e565b93610815565b634e487b7160e01b600052601160045260246000fd5b34610178576000366003190112610178576020600654604051908152f35b346101785760208060031936011261017857604051633af32abf60e01b815233600482810191909152359082816024817f00000000000000000000000000000000000000000000000000000000000000006001600160a01b03165afa908115610ca557600091610c6f575b5015610c2c5780151580610c20575b610b569061123e565b8060005260018252610b7560ff60046040600020015460081c1661128a565b60005260018152604060002060018101548015610be457610b9690426111b9565b600382015410610ba95754604051908152f35b60405162461bcd60e51b81526004810183905260136024820152724f7261636c653a207374616c6520707269636560681b6044820152606490fd5b60405162461bcd60e51b815260048101849052601460248201527313dc9858db194e881b9bc81c1c9a58d9481e595d60621b6044820152606490fd5b50600654811115610b4d565b6064826040519062461bcd60e51b825280600483015260248201527f4f7261636c653a20636f6e73756d6572206e6f742077686974656c69737465646044820152fd5b90508281813d8311610c9e575b610c8681836111c6565b81010312610178575180151581036101785783610b3e565b503d610c7c565b6040513d6000823e3d90fd5b60003660031901126101785733600052600260205260ff6040600020541615610d32573415610cf8573360005260036020526040600020805490348201809211610a9f5755005b60405162461bcd60e51b81526020600482015260126024820152714f7261636c653a207a65726f207374616b6560701b6044820152606490fd5b60405162461bcd60e51b815260206004820152601f60248201527f4f7261636c653a206e6f742061207265676973746572656420666565646572006044820152606490fd5b346101785760208060031936011261017857600435600052600190600181526040600020916005830160018401549360028101549060046003820154910154918615159384610ee9575b6040518096600090835493610dd585611204565b948585528b600182169182600014610ec7575050600114610e88575b5050610e05925098949295939803866111c6565b60405196879460e086528651948560e08801526000975b89878a10610e6e57505060ff94959697506101009860008a898b01015288015260408701526060860152818116608086015260081c16151560a0840152151560c0830152601f80199101168101030190f35b8982018101516101008d8c010152909801978a9750610e1c565b8a925060005281600020906000915b858310610eaf575050610e0593508201018a80610df1565b8054838c018501528a94508b93909201918101610e97565b9250935050610e0594915060ff191682840152151560051b8201018a80610df1565b935081610ef688426111b9565b1193610dc1565b3461017857602036600319011261017857610f2360018060a01b03600054163314611179565b60048035600090815260016020526040902001805461ff001916610100179055005b34610178576020366003190112610178576004358060005260016020526002604060002001549060018201809211610a9f5760005260046020526040600020906000526020526020604060002054604051908152f35b3461017857602036600319011261017857610fb4611163565b6000546001600160a01b039190610fce9083163314611179565b168060005260026020526040600020600160ff198254161790557f53813a21bbdd00f3df18b895e7321dea1615b185cccbe44f4a669c3f7a96dfa7600080a2005b34610178576020366003190112610178576001600160a01b03611030611163565b166000526002602052602060ff604060002054166040519015158152f35b3461017857604036600319011261017857611067611163565b6110ae600080808060243560018060a01b038097611089828554163314611179565b1696878352600360205260408320805492838111851461115a575082978880946111b9565b90558254165af13d15611155573d6110c5816111e8565b906110d360405192836111c6565b8152600060203d92013e5b156111105760207fcc2aea518406896ca5b14792d3d940a30a8759e475ae2d59e1b638f787fb99ea91604051908152a2005b60405162461bcd60e51b815260206004820152601d60248201527f4f7261636c653a20736c617368207472616e73666572206661696c65640000006044820152606490fd5b6110de565b978880946111b9565b600435906001600160a01b038216820361017857565b1561118057565b60405162461bcd60e51b815260206004820152601160248201527027b930b1b6329d103737ba1037bbb732b960791b6044820152606490fd5b91908203918211610a9f57565b90601f8019910116810190811067ffffffffffffffff821117610a7d57604052565b67ffffffffffffffff8111610a7d57601f01601f191660200190565b90600182811c92168015611234575b602083101461121e57565b634e487b7160e01b600052602260045260246000fd5b91607f1691611213565b1561124557565b60405162461bcd60e51b815260206004820152601b60248201527f4f7261636c653a206665656420646f6573206e6f7420657869737400000000006044820152606490fd5b1561129157565b60405162461bcd60e51b815260206004820152601360248201527213dc9858db194e8819995959081c185d5cd959606a1b6044820152606490fd5b80548210156112e45760005260206000200190600090565b634e487b7160e01b600052603260045260246000fd5b67ffffffffffffffff8111610a7d5760051b60200190565b80518210156112e45760209160051b010190565b9060018201916000600184129112908015821691151617610a9f57565b908151916001928381146114625761135a816112fa565b9161136860405193846111c6565b818352601f19611377836112fa565b013660208501378460005b838110611444575090505b8181106113a557506113a192931c90611312565b5190565b6113af8184611312565b5160001991908282018281138816610a9f578793845b6113e4575b506113d76113dd91611326565b86611312565b520161138d565b93600082121580611431575b1561142b57506114008187611312565b5161141361140d83611326565b88611312565b52600160ff1b8114610a9f57838894859201916113c5565b936113ca565b508261143d8389611312565b51116113f0565b61144e8184611312565b516114598287611312565b52018590611382565b90919250156112e457602001519056fea2646970667358221220c21c44aaa6af7dc1b713551ebef9559888a56264a4a39421c5552a9256b203cf64736f6c63430008180033",
  "linkReferences": {},
  "deployedLinkReferences": {}
}