{
  "_format": "hh-sol-artifact-1",
  "contractName": "MockConsumer",
  "sourceName": "contracts/MockConsumer.sol",
  "abi": [
    {
      "inputs": [
        {
          "internalType": "address",
          "name": "_oracle",
          "type": "address"
        }
      ],
      "stateMutability": "nonpayable",
      "type": "constructor"
    },
    {
      "anonymous": false,
      "inputs": [
        {
          "indexed": true,
          "internalType": "address",
          "name": "position",
          "type": "address"
        },
        {
          "indexed": false,
          "internalType": "uint256",
          "name": "feedId",
          "type": "uint256"
        }
      ],
      "name": "LiquidationTriggered",
      "type": "event"
    },
    {
      "anonymous": false,
      "inputs": [
        {
          "indexed": false,
          "internalType": "uint256",
          "name": "feedId",
          "type": "uint256"
        },
        {
          "indexed": false,
          "internalType": "string",
          "name": "checkType",
          "type": "string"
        }
      ],
      "name": "PriceCheckPassed",
      "type": "event"
    },
    {
      "inputs": [],
      "name": "BTC_USD_FEED",
      "outputs": [
        {
          "internalType": "uint256",
          "name": "",
          "type": "uint256"
        }
      ],
      "stateMutability": "view",
      "type": "function"
    },
    {
      "inputs": [],
      "name": "ETH_USD_FEED",
      "outputs": [
        {
          "internalType": "uint256",
          "name": "",
          "type": "uint256"
        }
      ],
      "stateMutability": "view",
      "type": "function"
    },
    {
      "inputs": [
        {
          "internalType": "address",
          "name": "position",
          "type": "address"
        },
        {
          "internalType": "uint256",
          "name": "feedId",
          "type": "uint256"
        },
        {
          "internalType": "uint256",
          "name": "liquidationPrice",
          "type": "uint256"
        }
      ],
      "name": "checkLiquidation",
      "outputs": [
        {
          "internalType": "bool",
          "name": "shouldLiquidate",
          "type": "bool"
        }
      ],
      "stateMutability": "nonpayable",
      "type": "function"
    },
    {
      "inputs": [
        {
          "internalType": "uint256",
          "name": "feedId",
          "type": "uint256"
        },
        {
          "internalType": "uint256",
          "name": "threshold",
          "type": "uint256"
        }
      ],
      "name": "isPriceAbove",
      "outputs": [
        {
          "internalType": "bool",
          "name": "",
          "type": "bool"
        }
      ],
      "stateMutability": "view",
      "type": "function"
    },
    {
      "inputs": [
        {
          "internalType": "uint256",
          "name": "feedId",
          "type": "uint256"
        },
        {
          "internalType": "uint256",
          "name": "threshold",
          "type": "uint256"
        }
      ],
      "name": "isPriceBelow",
      "outputs": [
        {
          "internalType": "bool",
          "name": "",
          "type": "bool"
        }
      ],
      "stateMutability": "view",
      "type": "function"
    },
    {
      "inputs": [
        {
          "internalType": "uint256",
          "name": "feedId",
          "type": "uint256"
        },
        {
          "internalType": "uint256",
          "name": "lower",
          "type": "uint256"
        },
        {
          "internalType": "uint256",
          "name": "upper",
          "type": "uint256"
        }
      ],
      "name": "isWithinBand",
      "outputs": [
        {
          "internalType": "bool",
          "name": "",
          "type": "bool"
        }
      ],
      "stateMutability": "view",
      "type": "function"
    },
    {
      "inputs": [],
      "name": "oracle",
      "outputs": [
        {
          "internalType": "contract IFHEOracleBridge",
          "name": "",
          "type": "address"
        }
      ],
      "stateMutability": "view",
      "type": "function"
    },
    {
      "inputs": [],
      "name": "owner",
      "outputs": [
        {
          "internalType": "address",
          "name": "",
          "type": "address"
        }
      ],
      "stateMutability": "view",
      "type": "function"
    },
    {
      "inputs": [
        {
          "internalType": "address",
          "name": "newOracle",
          "type": "address"
        }
      ],
      "name": "updateOracle",
      "outputs": [],
      "stateMutability": "nonpayable",
      "type": "function"
    }
  ],
  "bytecode": "0x60803461007c57601f61059238819003918201601f19168301916001600160401b038311848410176100815780849260209460405283398101031261007c57516001600160a01b0381169081900361007c5760018060a01b031990816000541617600055339060015416176001556040516104fa90816100988239f35b600080fd5b634e487b7160e01b600052604160045260246000fdfe608060408181526004908136101561001657600080fd5b600092833560e01c9081631cb44dfc146103da5750806330c2ca761461034e5780637dc0d1d0146103265780637e8bf08e1461030a5780638da5cb5b146102e1578063938e0c911461024557806394d8572a14610225578063a528d4e01461013e5763cf8910d21461008757600080fd5b3461012857606036600319011261012857825481516304388cbd60e41b8152833593810193909352602090839060249082906001600160a01b03165afa9182156101345783926100f8575b5060209250602435821191826100ec575b50519015158152f35b604435119150386100e3565b9091506020813d60201161012c575b816101146020938361048c565b8101031261012857602092505190386100d2565b8280fd5b3d9150610107565b81513d85823e3d90fd5b50346101285760603660031901126101285761015861045b565b835482516304388cbd60e41b8152602480359582018690526020966001600160a01b03969493909291889183919082908a165afa91821561021a57908188936101e6575b50506044351194856101b3575b5050505051908152f35b7f518c4e18971712e9ead4b0494dcf1bfc39d789cf7622ddfc960c7d62661512da9285519485521692a2388084816101a9565b91509182813d8311610213575b6101fd818361048c565b810103126102105750859051388061019c565b80fd5b503d6101f3565b8551903d90823e3d90fd5b8382346102415781600319360112610241576020905160018152f35b5080fd5b5090346101285760209161025836610476565b855483516304388cbd60e41b8152948501929092529390839060249082906001600160a01b03165afa9182156102d757849261029b575b50602093505191118152f35b9091506020813d6020116102cf575b816102b76020938361048c565b810103126102cb576020935051903861028f565b8380fd5b3d91506102aa565b81513d86823e3d90fd5b83823461024157816003193601126102415760015490516001600160a01b039091168152602090f35b8382346102415781600319360112610241576020905160028152f35b838234610241578160031936011261024157905490516001600160a01b039091168152602090f35b50346101285760209061036036610476565b855483516304388cbd60e41b8152958601929092529290849060249082906001600160a01b03165afa9283156102d75784936103a25750602093505191118152f35b9092506020813d6020116103d2575b816103be6020938361048c565b810103126102cb576020935051913861028f565b3d91506103b1565b91505034610128576020366003190112610128576103f661045b565b6001546001600160a01b0393919291908416330361042457505082546001600160a01b031916911617815580f35b62461bcd60e51b8252602090820152601360248201527221b7b739bab6b2b91d103737ba1037bbb732b960691b6044820152606490fd5b600435906001600160a01b038216820361047157565b600080fd5b6040906003190112610471576004359060243590565b90601f8019910116810190811067ffffffffffffffff8211176104ae57604052565b634e487b7160e01b600052604160045260246000fdfea2646970667358221220333367500c37fa48316b219dab32e781ed807c8cf82338328f7e7e489485df6a64736f6c63430008180033",
  "linkReferences": {},
  "deployedLinkReferences": {}
}