{
  "_format": "hh-sol-artifact-1",
  "contractName": "PrivateLiquidator",
  "sourceName": "contracts/PrivateLiquidator.sol",
  "abi": [
    {
      "inputs": [
        {
          "internalType": "address",
          "name": "_oracle",
          "type": "address"
        }
      ],
      "stateMutability": "nonpayable",
      "type": "constructor"
    },
    {
      "anonymous": false,
      "inputs": [
        {
          "indexed": true,
          "internalType": "uint256",
          "name": "positionId",
          "type": "uint256"
        },
        {
          "indexed": true,
          "internalType": "address",
          "name": "owner",
          "type": "address"
        }
      ],
      "name": "PositionClosed",
      "type": "event"
    },
    {
      "anonymous": false,
      "inputs": [
        {
          "indexed": true,
          "internalType": "uint256",
          "name": "positionId",
          "type": "uint256"
        },
        {
          "indexed": true,
          "internalType": "address",
          "name": "liquidator",
          "type": "address"
        },
        {
          "indexed": false,
          "internalType": "uint256",
          "name": "collateral",
          "type": "uint256"
        }
      ],
      "name": "PositionLiquidated",
      "type": "event"
    },
    {
      "anonymous": false,
      "inputs": [
        {
          "indexed": true,
          "internalType": "uint256",
          "name": "positionId",
          "type": "uint256"
        },
        {
          "indexed": true,
          "internalType": "address",
          "name": "owner",
          "type": "address"
        },
        {
          "indexed": false,
          "internalType": "uint256",
          "name": "collateral",
          "type": "uint256"
        }
      ],
      "name": "PositionOpened",
      "type": "event"
    },
    {
      "inputs": [
        {
          "internalType": "uint256",
          "name": "positionId",
          "type": "uint256"
        }
      ],
      "name": "closePosition",
      "outputs": [],
      "stateMutability": "nonpayable",
      "type": "function"
    },
    {
      "inputs": [
        {
          "internalType": "uint256",
          "name": "positionId",
          "type": "uint256"
        }
      ],
      "name": "isLiquidatable",
      "outputs": [
        {
          "internalType": "bool",
          "name": "",
          "type": "bool"
        }
      ],
      "stateMutability": "view",
      "type": "function"
    },
    {
      "inputs": [
        {
          "internalType": "uint256",
          "name": "positionId",
          "type": "uint256"
        }
      ],
      "name": "liquidate",
      "outputs": [],
      "stateMutability": "nonpayable",
      "type": "function"
    },
    {
      "inputs": [
        {
          "internalType": "uint256",
          "name": "feedId",
          "type": "uint256"
        },
        {
          "internalType": "uint256",
          "name": "encLiquidationPrice",
          "type": "uint256"
        }
      ],
      "name": "openPosition",
      "outputs": [
        {
          "internalType": "uint256",
          "name": "positionId",
          "type": "uint256"
        }
      ],
      "stateMutability": "payable",
      "type": "function"
    },
    {
      "inputs": [],
      "name": "oracle",
      "outputs": [
        {
          "internalType": "contract IFHEOracleBridge",
          "name": "",
          "type": "address"
        }
      ],
      "stateMutability": "view",
      "type": "function"
    },
    {
      "inputs": [],
      "name": "owner",
      "outputs": [
        {
          "internalType": "address",
          "name": "",
          "type": "address"
        }
      ],
      "stateMutability": "view",
      "type": "function"
    },
    {
      "inputs": [],
      "name": "positionCount",
      "outputs": [
        {
          "internalType": "uint256",
          "name": "",
          "type": "uint256"
        }
      ],
      "stateMutability": "view",
      "type": "function"
    },
    {
      "inputs": [
        {
          "internalType": "uint256",
          "name": "",
          "type": "uint256"
        }
      ],
      "name": "positions",
      "outputs": [
        {
          "internalType": "address",
          "name": "owner",
          "type": "address"
        },
        {
          "internalType": "uint256",
          "name": "collateral",
          "type": "uint256"
        },
        {
          "internalType": "uint256",
          "name": "encLiquidationPrice",
          "type": "uint256"
        },
        {
          "internalType": "uint256",
          "name": "feedId",
          "type": "uint256"
        },
        {
          "internalType": "bool",
          "name": "active",
          "type": "bool"
        },
        {
          "internalType": "uint256",
          "name": "createdAt",
          "type": "uint256"
        }
      ],
      "stateMutability": "view",
      "type": "function"
    },
    {
      "inputs": [
        {
          "internalType": "address",
          "name": "newOracle",
          "type": "address"
        }
      ],
      "name": "updateOracle",
      "outputs": [],
      "stateMutability": "nonpayable",
      "type": "function"
    },
    {
      "stateMutability": "payable",
      "type": "receive"
    }
  ],
  "bytecode": "0x60803461007c57601f6108f438819003918201601f19168301916001600160401b038311848410176100815780849260209460405283398101031261007c57516001600160a01b0381169081900361007c5760018060a01b0319908160005416176000553390600154161760015560405161085c90816100988239f35b600080fd5b634e487b7160e01b600052604160045260246000fdfe6080604081815260049182361015610022575b505050361561002057600080fd5b005b600092833560e01c9182631cb44dfc1461064157508163211a4443146106155781633012b05c146104a8578163415f1240146102d45781637dc0d1d0146102ac5781638da5cb5b1461028357816399fbab8814610218578163a126d601146100b6575063e7702d05146100955780610012565b346100b257816003193601126100b2576020906003549051908152f35b5080fd5b905034610214576020366003190112610214578035808452600260205282842080549193916001600160a01b031633036101d15782810180549160ff83161561018e5786809381809460018295019081549360ff1916905555335af161011a6107e6565b501561014b57505033907fcefaf961c5013063cf501ffd9f9382e9b9c4b15741ad032fe93d7e9c7c733b228380a380f35b906020606492519162461bcd60e51b8352820152601960248201527f4c697175696461746f723a20726566756e64206661696c6564000000000000006044820152fd5b835162461bcd60e51b8152602081870152601a60248201527f4c697175696461746f723a20616c726561647920636c6f7365640000000000006044820152606490fd5b815162461bcd60e51b8152602081850152601e60248201527f4c697175696461746f723a206e6f7420706f736974696f6e206f776e657200006044820152606490fd5b8280fd5b91905034610214576020366003190112610214578060c0938335815260026020522060018060a01b0381541692600182015492600283015490600560ff60038601549486015416940154948151968752602087015285015260608401521515608083015260a0820152f35b5050346100b257816003193601126100b25760015490516001600160a01b039091168152602090f35b5050346100b257816003193601126100b257905490516001600160a01b039091168152602090f35b91905034610214576020806003193601126104a4578235916102f5836106fe565b156104635782855260028252808520938560018601828154970160ff19815416905555600585028581046005148615171561045057606490048086039086821161043d578780808093335af16103496107e6565b50156103f05760015487918291829182916001600160a01b03165af161036d6107e6565b50156103a15750907f26dc706c10b1f8a4bf68a2f50b9a025921938e72ee2ab65f50815438fba4a88d91519384523393a380f35b82608492519162461bcd60e51b8352820152602560248201527f4c697175696461746f723a2072656d61696e646572207472616e736665722066604482015264185a5b195960da1b6064820152fd5b5082608492519162461bcd60e51b8352820152602260248201527f4c697175696461746f723a20726577617264207472616e73666572206661696c604482015261195960f21b6064820152fd5b634e487b7160e01b885260118352602488fd5b634e487b7160e01b875260118252602487fd5b5162461bcd60e51b81529283015250601c60248201527f4c697175696461746f723a206e6f74206c6971756964617461626c65000000006044820152606490fd5b8380fd5b8383806003193601126100b25734156105c75760035460001981146105b457600101918260035581519060c0820182811067ffffffffffffffff8211176105a1579060209560059285523384528684019034825285850160243581526060860190823582526080870193600185528860a08901964288528b815260028d52209760018060a01b039051166bffffffffffffffffffffffff60a01b89541617885551600188015551600287015551600386015584019051151560ff80198354169116179055519101558051348152827feaa60b48f40915eec9cac9494da9c20cd39a8da2477334ecd0d97cab6c2de05b853393a351908152f35b634e487b7160e01b825260418652602482fd5b634e487b7160e01b835260118452602483fd5b5162461bcd60e51b8152602081840152602360248201527f4c697175696461746f723a206d7573742070726f7669646520636f6c6c6174656044820152621c985b60ea1b6064820152608490fd5b82843461063e57602036600319011261063e5750610635602092356106fe565b90519015158152f35b80fd5b849250346102145760203660031901126102145781356001600160a01b0381811693918490036106c25760015416330361068957505081546001600160a01b03191617815580f35b62461bcd60e51b825260209082015260156024820152742634b8bab4b230ba37b91d103737ba1037bbb732b960591b6044820152606490fd5b8480fd5b90601f8019910116810190811067ffffffffffffffff8211176106e857604052565b634e487b7160e01b600052604160045260246000fd5b600090815260209060028252604081209060ff600483015416156107a15760018060a01b03815416908360038401546024604051809581936304388cbd60e41b835260048301525afa938415610794578194610760575b505050600201541190565b909180939450813d831161078d575b61077981836106c6565b8101031261063e5750519060023880610755565b503d61076f565b50604051903d90823e3d90fd5b60405162461bcd60e51b815260048101849052601f60248201527f4c697175696461746f723a20706f736974696f6e206e6f7420616374697665006044820152606490fd5b3d15610821573d9067ffffffffffffffff82116106e85760405191610815601f8201601f1916602001846106c6565b82523d6000602084013e565b60609056fea2646970667358221220b14dd4d1f04bb45b03a1ec350ed9161f1b3cb591e59394e4d873608127cbdcd864736f6c63430008180033",
  "linkReferences": {},
  "deployedLinkReferences": {}
}