{
  "_format": "hh-sol-artifact-1",
  "contractName": "AccessRegistry",
  "sourceName": "contracts/AccessRegistry.sol",
  "abi": [
    {
      "inputs": [],
      "stateMutability": "nonpayable",
      "type": "constructor"
    },
    {
      "anonymous": false,
      "inputs": [
        {
          "indexed": true,
          "internalType": "address",
          "name": "consumer",
          "type": "address"
        }
      ],
      "name": "ConsumerRevoked",
      "type": "event"
    },
    {
      "anonymous": false,
      "inputs": [
        {
          "indexed": true,
          "internalType": "address",
          "name": "consumer",
          "type": "address"
        },
        {
          "indexed": false,
          "internalType": "string",
          "name": "label",
          "type": "string"
        }
      ],
      "name": "ConsumerWhitelisted",
      "type": "event"
    },
    {
      "anonymous": false,
      "inputs": [
        {
          "indexed": true,
          "internalType": "address",
          "name": "oldOwner",
          "type": "address"
        },
        {
          "indexed": true,
          "internalType": "address",
          "name": "newOwner",
          "type": "address"
        }
      ],
      "name": "OwnershipTransferred",
      "type": "event"
    },
    {
      "inputs": [],
      "name": "allConsumers",
      "outputs": [
        {
          "internalType": "address[]",
          "name": "",
          "type": "address[]"
        }
      ],
      "stateMutability": "view",
      "type": "function"
    },
    {
      "inputs": [
        {
          "internalType": "address",
          "name": "",
          "type": "address"
        }
      ],
      "name": "consumerLabels",
      "outputs": [
        {
          "internalType": "string",
          "name": "",
          "type": "string"
        }
      ],
      "stateMutability": "view",
      "type": "function"
    },
    {
      "inputs": [
        {
          "internalType": "address",
          "name": "consumer",
          "type": "address"
        }
      ],
      "name": "isWhitelisted",
      "outputs": [
        {
          "internalType": "bool",
          "name": "",
          "type": "bool"
        }
      ],
      "stateMutability": "view",
      "type": "function"
    },
    {
      "inputs": [],
      "name": "owner",
      "outputs": [
        {
          "internalType": "address",
          "name": "",
          "type": "address"
        }
      ],
      "stateMutability": "view",
      "type": "function"
    },
    {
      "inputs": [
        {
          "internalType": "address",
          "name": "consumer",
          "type": "address"
        }
      ],
      "name": "revoke",
      "outputs": [],
      "stateMutability": "nonpayable",
      "type": "function"
    },
    {
      "inputs": [
        {
          "internalType": "address",
          "name": "newOwner",
          "type": "address"
        }
      ],
      "name": "transferOwnership",
      "outputs": [],
      "stateMutability": "nonpayable",
      "type": "function"
    },
    {
      "inputs": [
        {
          "internalType": "address",
          "name": "consumer",
          "type": "address"
        },
        {
          "internalType": "string",
          "name": "label",
          "type": "string"
        }
      ],
      "name": "whitelist",
      "outputs": [],
      "stateMutability": "nonpayable",
      "type": "function"
    }
  ],
  "bytecode": "0x6080806040523461002857600080546001600160a01b0319163317905561078c908161002e8239f35b600080fdfe604060808152600436101561001357600080fd5b600090813560e01c9081632beeaca4146103975781633af32abf14610359578163674c5ce81461024457816374a8f103146101d55781638da5cb5b146101a95781639e12cf64146100e5575063f2fde38b1461006e57600080fd5b346100e25760203660031901126100e257610087610631565b81546001600160a01b03808216926100a03385146106be565b1680926100ae82151561070a565b7f8be0079c531659141344cd1fd0a4f28419497f9722a3daafe3b4186f6b6457e08580a36001600160a01b03191617815580f35b80fd5b82346100e257806003193601126100e2579080519182906003549182855260208095018093600384527fc2575a0e9e593c00f959f8c92f12db2869c3395a3b0502d05e2516446f71f85b90845b81811061018c5750505081610148910382610686565b83519485948186019282875251809352850193925b82811061016c57505050500390f35b83516001600160a01b03168552869550938101939281019260010161015d565b82546001600160a01b031684529288019260019283019201610132565b9050346101d157816003193601126101d157905490516001600160a01b039091168152602090f35b5080fd5b9050346101d15760203660031901126101d1576101f0610631565b82546001600160a01b03919061020990831633146106be565b168083526001602052908220805460ff191690557fba6e324dd75969176df09e0229c0f140ea0fd2261d24992ac14978fae998afe78280a280f35b9050346101d157602091826003193601126100e2576001600160a01b03610269610631565b16815260028352818120908383518093839080546102868161064c565b8085529160019180831690811561033657506001146102f9575b5050506102b39250959392950382610686565b82519382859384528251928382860152825b8481106102e357505050828201840152601f01601f19168101030190f35b81810183015188820188015287955082016102c5565b86528486209492508591905b81831061031e5750889450508201016102b338806102a0565b85548884018501529485019487945091830191610305565b925050506102b394925060ff191682840152151560051b820101869238806102a0565b9050346101d15760203660031901126101d15760209160ff9082906001600160a01b03610384610631565b1681526001855220541690519015158152f35b82346100e257816003193601126100e2576103b0610631565b9160249283359167ffffffffffffffff9182841161062d573660238501121561062d57836004013592831161062d573686848601011161062d5784546001600160a01b03919061040390831633146106be565b169261041084151561070a565b83855260019560209187835260ff8488205416156105ae575b8587528783528387208860ff198254161790556002835283872061044d815461064c565b601f8111610568575b5087601f87116001146104de5791839187808b9c819782977f26877316c574f0297bf0ec32385719ea387c8d9ef0dc60a811e1288302714c2f9d9e946104d1575b50501b906000198660031b1c19161790555b855196858896875286015201848401378181018301879052601f01601f19168101030190a280f35b860101359250858f610497565b98601f198716828a52858a20908a5b818110610551575091889593917f26877316c574f0297bf0ec32385719ea387c8d9ef0dc60a811e1288302714c2f9a9b9c8780979510610535575b505084811b0190556104a9565b8401850135600019600388901b60f8161c191690558c80610528565b858d0187013583559b87019b9183019187016104ed565b818952848920601f880160051c8101918689106105a4575b601f0160051c01908a905b828110610599575050610456565b8a8155018a9061058b565b9091508190610580565b6003546801000000000000000081101561061a5788810180600355811015610607577fc2575a0e9e593c00f959f8c92f12db2869c3395a3b0502d05e2516446f71f85b0180546001600160a01b03191687179055610429565b634e487b7160e01b885260326004528288fd5b634e487b7160e01b885260416004528288fd5b8480fd5b600435906001600160a01b038216820361064757565b600080fd5b90600182811c9216801561067c575b602083101461066657565b634e487b7160e01b600052602260045260246000fd5b91607f169161065b565b90601f8019910116810190811067ffffffffffffffff8211176106a857604052565b634e487b7160e01b600052604160045260246000fd5b156106c557565b60405162461bcd60e51b815260206004820152601960248201527f41636365737352656769737472793a206e6f74206f776e6572000000000000006044820152606490fd5b1561071157565b60405162461bcd60e51b815260206004820152601c60248201527f41636365737352656769737472793a207a65726f2061646472657373000000006044820152606490fdfea2646970667358221220411c2a7d6345325d4652bf1dc8179158c7a7d7df404600dcb6a77e21accbbcde64736f6c63430008180033",
  "linkReferences": {},
  "deployedLinkReferences": {}
}